{
  "contractName": "CompaniesContract",
  "abi": [
    {
      "inputs": [],
      "stateMutability": "nonpayable",
      "type": "constructor"
    },
    {
      "inputs": [
        {
          "internalType": "address",
          "name": "",
          "type": "address"
        }
      ],
      "name": "CompaniesDetails",
      "outputs": [
        {
          "internalType": "string",
          "name": "Name",
          "type": "string"
        },
        {
          "internalType": "uint256",
          "name": "totalStocks",
          "type": "uint256"
        },
        {
          "internalType": "uint256",
          "name": "availableStocks",
          "type": "uint256"
        },
        {
          "internalType": "uint256",
          "name": "stockPrice",
          "type": "uint256"
        },
        {
          "internalType": "bool",
          "name": "isRegistered",
          "type": "bool"
        },
        {
          "internalType": "bool",
          "name": "isApproved",
          "type": "bool"
        }
      ],
      "stateMutability": "view",
      "type": "function"
    },
    {
      "inputs": [
        {
          "internalType": "address",
          "name": "_Cpnyaddr",
          "type": "address"
        }
      ],
      "name": "getCompanyDetails",
      "outputs": [
        {
          "components": [
            {
              "internalType": "string",
              "name": "Name",
              "type": "string"
            },
            {
              "internalType": "uint256",
              "name": "totalStocks",
              "type": "uint256"
            },
            {
              "internalType": "uint256",
              "name": "availableStocks",
              "type": "uint256"
            },
            {
              "internalType": "uint256",
              "name": "stockPrice",
              "type": "uint256"
            },
            {
              "internalType": "bool",
              "name": "isRegistered",
              "type": "bool"
            },
            {
              "internalType": "bool",
              "name": "isApproved",
              "type": "bool"
            }
          ],
          "internalType": "struct CompaniesContract.CompanyDetail",
          "name": "",
          "type": "tuple"
        }
      ],
      "stateMutability": "view",
      "type": "function"
    },
    {
      "inputs": [],
      "name": "getAllCompanies",
      "outputs": [
        {
          "internalType": "address[]",
          "name": "",
          "type": "address[]"
        }
      ],
      "stateMutability": "view",
      "type": "function"
    },
    {
      "inputs": [
        {
          "internalType": "address",
          "name": "_CpnyAddr",
          "type": "address"
        }
      ],
      "name": "isApproved",
      "outputs": [
        {
          "internalType": "bool",
          "name": "",
          "type": "bool"
        }
      ],
      "stateMutability": "view",
      "type": "function"
    },
    {
      "inputs": [
        {
          "internalType": "address",
          "name": "_CpnyAddr",
          "type": "address"
        }
      ],
      "name": "isRegistered",
      "outputs": [
        {
          "internalType": "bool",
          "name": "",
          "type": "bool"
        }
      ],
      "stateMutability": "view",
      "type": "function"
    },
    {
      "inputs": [
        {
          "internalType": "address",
          "name": "_msgSender",
          "type": "address"
        },
        {
          "internalType": "string",
          "name": "_Name",
          "type": "string"
        },
        {
          "internalType": "uint256",
          "name": "_totalStocks",
          "type": "uint256"
        },
        {
          "internalType": "uint256",
          "name": "_stockPrice",
          "type": "uint256"
        }
      ],
      "name": "_requestRegisterMyCompany",
      "outputs": [],
      "stateMutability": "payable",
      "type": "function"
    },
    {
      "inputs": [
        {
          "internalType": "address",
          "name": "_CpnyAddr",
          "type": "address"
        }
      ],
      "name": "_approveCompany",
      "outputs": [],
      "stateMutability": "nonpayable",
      "type": "function"
    },
    {
      "inputs": [
        {
          "internalType": "address",
          "name": "_CpnyAddr",
          "type": "address"
        }
      ],
      "name": "getStockPrice",
      "outputs": [
        {
          "internalType": "uint256",
          "name": "",
          "type": "uint256"
        }
      ],
      "stateMutability": "view",
      "type": "function"
    },
    {
      "inputs": [
        {
          "internalType": "address",
          "name": "_CpnyAddr",
          "type": "address"
        },
        {
          "internalType": "uint256",
          "name": "numberofStocks",
          "type": "uint256"
        }
      ],
      "name": "reduceStock",
      "outputs": [],
      "stateMutability": "payable",
      "type": "function"
    }
  ],
  "bytecode": "0x608060405234801561001057600080fd5b50611887806100206000396000f3fe6080604052600436106100865760003560e01c8063a5bdfed911610059578063a5bdfed91461016d578063ac77024a14610196578063aff9afcb146101d8578063bf9c2a4c146101f4578063c3c5a5471461021057610086565b80630558d3e91461008b5780633d3325e0146100c8578063408bf4c314610105578063673448dd14610130575b600080fd5b34801561009757600080fd5b506100b260048036038101906100ad9190610d72565b61024d565b6040516100bf919061132e565b60405180910390f35b3480156100d457600080fd5b506100ef60048036038101906100ea9190610d72565b61038c565b6040516100fc9190611350565b60405180910390f35b34801561011157600080fd5b5061011a610427565b60405161012791906111a9565b60405180910390f35b34801561013c57600080fd5b5061015760048036038101906101529190610d72565b6104b5565b60405161016491906111cb565b60405180910390f35b34801561017957600080fd5b50610194600480360381019061018f9190610d72565b610526565b005b3480156101a257600080fd5b506101bd60048036038101906101b89190610d72565b6106b0565b6040516101cf969594939291906111e6565b60405180910390f35b6101f260048036038101906101ed9190610e22565b61078e565b005b61020e60048036038101906102099190610d9f565b6108bf565b005b34801561021c57600080fd5b5061023760048036038101906102329190610d72565b610b8a565b60405161024491906111cb565b60405180910390f35b610255610bfb565b600260008373ffffffffffffffffffffffffffffffffffffffff1673ffffffffffffffffffffffffffffffffffffffff1681526020019081526020016000206040518060c00160405290816000820180546102af90611505565b80601f01602080910402602001604051908101604052809291908181526020018280546102db90611505565b80156103285780601f106102fd57610100808354040283529160200191610328565b820191906000526020600020905b81548152906001019060200180831161030b57829003601f168201915b505050505081526020016001820154815260200160028201548152602001600382015481526020016004820160009054906101000a900460ff161515151581526020016004820160019054906101000a900460ff1615151515815250509050919050565b60006001151561039b836104b5565b1515146103dd576040517f08c379a00000000000000000000000000000000000000000000000000000000081526004016103d49061130e565b60405180910390fd5b600260008373ffffffffffffffffffffffffffffffffffffffff1673ffffffffffffffffffffffffffffffffffffffff168152602001908152602001600020600301549050919050565b606060018054806020026020016040519081016040528092919081815260200182805480156104ab57602002820191906000526020600020905b8160009054906101000a900473ffffffffffffffffffffffffffffffffffffffff1673ffffffffffffffffffffffffffffffffffffffff1681526020019060010190808311610461575b5050505050905090565b600060011515600260008473ffffffffffffffffffffffffffffffffffffffff1673ffffffffffffffffffffffffffffffffffffffff16815260200190815260200160002060040160019054906101000a900460ff161515141561051c5760019050610521565b600090505b919050565b60011515600260008373ffffffffffffffffffffffffffffffffffffffff1673ffffffffffffffffffffffffffffffffffffffff16815260200190815260200160002060040160009054906101000a900460ff161515146105bc576040517f08c379a00000000000000000000000000000000000000000000000000000000081526004016105b39061124e565b60405180910390fd5b60011515600260008373ffffffffffffffffffffffffffffffffffffffff1673ffffffffffffffffffffffffffffffffffffffff16815260200190815260200160002060040160019054906101000a900460ff16151514610652576040517f08c379a0000000000000000000000000000000000000000000000000000000008152600401610649906112ae565b60405180910390fd5b6001600260008373ffffffffffffffffffffffffffffffffffffffff1673ffffffffffffffffffffffffffffffffffffffff16815260200190815260200160002060040160016101000a81548160ff02191690831515021790555050565b60026020528060005260406000206000915090508060000180546106d390611505565b80601f01602080910402602001604051908101604052809291908181526020018280546106ff90611505565b801561074c5780601f106107215761010080835404028352916020019161074c565b820191906000526020600020905b81548152906001019060200180831161072f57829003601f168201915b5050505050908060010154908060020154908060030154908060040160009054906101000a900460ff16908060040160019054906101000a900460ff16905086565b6001151561079b836104b5565b1515146107dd576040517f08c379a00000000000000000000000000000000000000000000000000000000081526004016107d4906112ce565b60405180910390fd5b80600260008473ffffffffffffffffffffffffffffffffffffffff1673ffffffffffffffffffffffffffffffffffffffff168152602001908152602001600020600201541015610862576040517f08c379a00000000000000000000000000000000000000000000000000000000081526004016108599061128e565b60405180910390fd5b80600260008473ffffffffffffffffffffffffffffffffffffffff1673ffffffffffffffffffffffffffffffffffffffff16815260200190815260200160002060020160008282546108b49190611447565b925050819055505050565b60001515600260008673ffffffffffffffffffffffffffffffffffffffff1673ffffffffffffffffffffffffffffffffffffffff16815260200190815260200160002060040160009054906101000a900460ff16151514610955576040517f08c379a000000000000000000000000000000000000000000000000000000000815260040161094c906112ee565b60405180910390fd5b60005b6000805490508110156109f4578380519060200120600082815481106109815761098061160f565b5b906000526020600020016040516109989190611192565b604051809103902014156109e1576040517f08c379a00000000000000000000000000000000000000000000000000000000081526004016109d89061126e565b60405180910390fd5b80806109ec90611568565b915050610958565b506040518060c0016040528084815260200183815260200183815260200182815260200160011515815260200160001515815250600260008673ffffffffffffffffffffffffffffffffffffffff1673ffffffffffffffffffffffffffffffffffffffff1681526020019081526020016000206000820151816000019080519060200190610a83929190610c35565b5060208201518160010155604082015181600201556060820151816003015560808201518160040160006101000a81548160ff02191690831515021790555060a08201518160040160016101000a81548160ff021916908315150217905550905050600083908060018154018082558091505060019003906000526020600020016000909190919091509080519060200190610b20929190610c35565b506001849080600181540180825580915050600190039060005260206000200160009091909190916101000a81548173ffffffffffffffffffffffffffffffffffffffff021916908373ffffffffffffffffffffffffffffffffffffffff16021790555050505050565b600060011515600260008473ffffffffffffffffffffffffffffffffffffffff1673ffffffffffffffffffffffffffffffffffffffff16815260200190815260200160002060040160009054906101000a900460ff1615151415610bf15760019050610bf6565b600090505b919050565b6040518060c00160405280606081526020016000815260200160008152602001600081526020016000151581526020016000151581525090565b828054610c4190611505565b90600052602060002090601f016020900481019282610c635760008555610caa565b82601f10610c7c57805160ff1916838001178555610caa565b82800160010185558215610caa579182015b82811115610ca9578251825591602001919060010190610c8e565b5b509050610cb79190610cbb565b5090565b5b80821115610cd4576000816000905550600101610cbc565b5090565b6000610ceb610ce684611390565b61136b565b905082815260208101848484011115610d0757610d06611672565b5b610d128482856114c3565b509392505050565b600081359050610d2981611823565b92915050565b600082601f830112610d4457610d4361166d565b5b8135610d54848260208601610cd8565b91505092915050565b600081359050610d6c8161183a565b92915050565b600060208284031215610d8857610d8761167c565b5b6000610d9684828501610d1a565b91505092915050565b60008060008060808587031215610db957610db861167c565b5b6000610dc787828801610d1a565b945050602085013567ffffffffffffffff811115610de857610de7611677565b5b610df487828801610d2f565b9350506040610e0587828801610d5d565b9250506060610e1687828801610d5d565b91505092959194509250565b60008060408385031215610e3957610e3861167c565b5b6000610e4785828601610d1a565b9250506020610e5885828601610d5d565b9150509250929050565b6000610e6e8383610e7a565b60208301905092915050565b610e838161147b565b82525050565b6000610e94826113e6565b610e9e8185611409565b9350610ea9836113c1565b8060005b83811015610eda578151610ec18882610e62565b9750610ecc836113fc565b925050600181019050610ead565b5085935050505092915050565b610ef08161148d565b82525050565b610eff8161148d565b82525050565b60008154610f1281611505565b610f1c818661141a565b94506001821660008114610f375760018114610f4857610f7b565b60ff19831686528186019350610f7b565b610f51856113d1565b60005b83811015610f7357815481890152600182019150602081019050610f54565b838801955050505b50505092915050565b6000610f8f826113f1565b610f998185611425565b9350610fa98185602086016114d2565b610fb281611681565b840191505092915050565b6000610fc8826113f1565b610fd28185611436565b9350610fe28185602086016114d2565b610feb81611681565b840191505092915050565b6000611003602a83611436565b915061100e82611692565b604082019050919050565b6000611026601b83611436565b9150611031826116e1565b602082019050919050565b6000611049600e83611436565b91506110548261170a565b602082019050919050565b600061106c601b83611436565b915061107782611733565b602082019050919050565b600061108f601483611436565b915061109a8261175c565b602082019050919050565b60006110b2602a83611436565b91506110bd82611785565b604082019050919050565b60006110d5602583611436565b91506110e0826117d4565b604082019050919050565b600060c08301600083015184820360008601526111088282610f84565b915050602083015161111d6020860182611174565b5060408301516111306040860182611174565b5060608301516111436060860182611174565b5060808301516111566080860182610ee7565b5060a083015161116960a0860182610ee7565b508091505092915050565b61117d816114b9565b82525050565b61118c816114b9565b82525050565b600061119e8284610f05565b915081905092915050565b600060208201905081810360008301526111c38184610e89565b905092915050565b60006020820190506111e06000830184610ef6565b92915050565b600060c08201905081810360008301526112008189610fbd565b905061120f6020830188611183565b61121c6040830187611183565b6112296060830186611183565b6112366080830185610ef6565b61124360a0830184610ef6565b979650505050505050565b6000602082019050818103600083015261126781610ff6565b9050919050565b6000602082019050818103600083015261128781611019565b9050919050565b600060208201905081810360008301526112a78161103c565b9050919050565b600060208201905081810360008301526112c78161105f565b9050919050565b600060208201905081810360008301526112e781611082565b9050919050565b60006020820190508181036000830152611307816110a5565b9050919050565b60006020820190508181036000830152611327816110c8565b9050919050565b6000602082019050818103600083015261134881846110eb565b905092915050565b60006020820190506113656000830184611183565b92915050565b6000611375611386565b90506113818282611537565b919050565b6000604051905090565b600067ffffffffffffffff8211156113ab576113aa61163e565b5b6113b482611681565b9050602081019050919050565b6000819050602082019050919050565b60008190508160005260206000209050919050565b600081519050919050565b600081519050919050565b6000602082019050919050565b600082825260208201905092915050565b600081905092915050565b600082825260208201905092915050565b600082825260208201905092915050565b6000611452826114b9565b915061145d836114b9565b9250828210156114705761146f6115b1565b5b828203905092915050565b600061148682611499565b9050919050565b60008115159050919050565b600073ffffffffffffffffffffffffffffffffffffffff82169050919050565b6000819050919050565b82818337600083830152505050565b60005b838110156114f05780820151818401526020810190506114d5565b838111156114ff576000848401525b50505050565b6000600282049050600182168061151d57607f821691505b60208210811415611531576115306115e0565b5b50919050565b61154082611681565b810181811067ffffffffffffffff8211171561155f5761155e61163e565b5b80604052505050565b6000611573826114b9565b91507fffffffffffffffffffffffffffffffffffffffffffffffffffffffffffffffff8214156115a6576115a56115b1565b5b600182019050919050565b7f4e487b7100000000000000000000000000000000000000000000000000000000600052601160045260246000fd5b7f4e487b7100000000000000000000000000000000000000000000000000000000600052602260045260246000fd5b7f4e487b7100000000000000000000000000000000000000000000000000000000600052603260045260246000fd5b7f4e487b7100000000000000000000000000000000000000000000000000000000600052604160045260246000fd5b600080fd5b600080fd5b600080fd5b600080fd5b6000601f19601f8301169050919050565b7f4e6f207375636820636f6d70616e7920726567697374726174696f6e2072657160008201527f7565737420666f756e6400000000000000000000000000000000000000000000602082015250565b7f436f6d70616e79204e616d6520416c7265616479204578697374730000000000600082015250565b7f4e6f206d6f72652073746f636b73000000000000000000000000000000000000600082015250565b7f436f6d70616e7920697320616c726561647920617070726f7665640000000000600082015250565b7f436f6d70616e79206e6f7420617070726f766564000000000000000000000000600082015250565b7f436f6d70616e7920416c72656164792052656769737465726564206f6e20746860008201527f6973204163636f756e7400000000000000000000000000000000000000000000602082015250565b7f436f6d70616e79206973206e6f7420617070726f766564206f7220726567697360008201527f7465726564000000000000000000000000000000000000000000000000000000602082015250565b61182c8161147b565b811461183757600080fd5b50565b611843816114b9565b811461184e57600080fd5b5056fea2646970667358221220b1a10d850e4b414fabd72c2dfcd50ae74006e73cd8b89fdcbf82c0f87a9f9ac564736f6c63430008070033",
  "immutableReferences": {},
  "source": "pragma solidity 0.8.7;\n\n/// @title Governable Contract\n/// @author github.com/aliimran2000\n/// @notice gives any contract a list of governers\ncontract CompaniesContract {\n    string[] CompanyNamesList;\n    address[] CompanyFounderList;\n\n    constructor() {}\n\n    struct CompanyDetail {\n        string Name;\n        uint256 totalStocks;\n        uint256 availableStocks;\n        uint256 stockPrice;\n        bool isRegistered;\n        bool isApproved;\n    }\n\n    mapping(address => CompanyDetail) public CompaniesDetails;\n\n    function getCompanyDetails(address _Cpnyaddr)\n        public\n        view\n        returns (CompanyDetail memory)\n    {\n        return CompaniesDetails[_Cpnyaddr];\n    }\n\n    function getAllCompanies() public view returns (address[] memory) {\n        return CompanyFounderList;\n    }\n\n    function isApproved(address _CpnyAddr) public view returns (bool) {\n        if (CompaniesDetails[_CpnyAddr].isApproved == true) {\n            return true;\n        } else {\n            return false;\n        }\n    }\n\n    function isRegistered(address _CpnyAddr) public view returns (bool) {\n        if (CompaniesDetails[_CpnyAddr].isRegistered == true) {\n            return true;\n        } else {\n            return false;\n        }\n    }\n\n    function _requestRegisterMyCompany(\n        address _msgSender,\n        string memory _Name,\n        uint256 _totalStocks,\n        uint256 _stockPrice\n    ) public payable {\n        require(\n            CompaniesDetails[_msgSender].isRegistered == false,\n            \"Company Already Registered on this Account\"\n        );\n\n        for (uint256 index = 0; index < CompanyNamesList.length; index++) {\n            require(\n                keccak256(bytes(CompanyNamesList[index])) !=\n                    keccak256(bytes(_Name)),\n                \"Company Name Already Exists\"\n            );\n        }\n\n        //adding to companydetails array\n        CompaniesDetails[_msgSender] = CompanyDetail({\n            Name: _Name,\n            totalStocks: _totalStocks,\n            availableStocks: _totalStocks,\n            stockPrice: _stockPrice,\n            isRegistered: true,\n            isApproved: false\n        });\n\n        //adding to list\n        CompanyNamesList.push(_Name);\n        CompanyFounderList.push(_msgSender);\n    }\n\n    function _approveCompany(address _CpnyAddr) external {\n        require(\n            CompaniesDetails[_CpnyAddr].isRegistered == true,\n            \"No such company registration request found\"\n        );\n        require(\n            CompaniesDetails[_CpnyAddr].isApproved == true,\n            \"Company is already approved\"\n        );\n        CompaniesDetails[_CpnyAddr].isApproved = true;\n    }\n\n    function getStockPrice(address _CpnyAddr) public view returns (uint256) {\n        require(\n            isApproved(_CpnyAddr) == true,\n            \"Company is not approved or registered\"\n        );\n        return CompaniesDetails[_CpnyAddr].stockPrice;\n    }\n\n    function reduceStock(address _CpnyAddr, uint256 numberofStocks)\n        public\n        payable\n    {\n        require(isApproved(_CpnyAddr) == true, \"Company not approved\");\n        require(\n            CompaniesDetails[_CpnyAddr].availableStocks >= numberofStocks,\n            \"No more stocks\"\n        );\n\n        CompaniesDetails[_CpnyAddr].availableStocks -= numberofStocks;\n    }\n\n    //approve company implmented in  share market\n}\n",
  "sourcePath": "/home/alii/Documents/Share-Market-Place/Logic/contracts/CompaniesContract.sol",
  "compiler": {
    "name": "solc",
    "version": "0.8.7+commit.e28d00a7.Emscripten.clang"
  },
  "schemaVersion": "3.4.2",
  "updatedAt": "2021-08-23T12:07:16.358Z",
  "devdoc": {
    "author": "github.com/aliimran2000",
    "kind": "dev",
    "methods": {},
    "title": "Governable Contract",
    "version": 1
  },
  "userdoc": {
    "kind": "user",
    "methods": {},
    "notice": "gives any contract a list of governers",
    "version": 1
  }
}