{
  "contractName": "CompaniesContract",
  "abi": [
    {
      "inputs": [],
      "stateMutability": "nonpayable",
      "type": "constructor"
    },
    {
      "inputs": [
        {
          "internalType": "address",
          "name": "",
          "type": "address"
        }
      ],
      "name": "CompaniesDetails",
      "outputs": [
        {
          "internalType": "string",
          "name": "Name",
          "type": "string"
        },
        {
          "internalType": "uint256",
          "name": "totalStocks",
          "type": "uint256"
        },
        {
          "internalType": "uint256",
          "name": "stockPrice",
          "type": "uint256"
        },
        {
          "internalType": "bool",
          "name": "isRegistered",
          "type": "bool"
        },
        {
          "internalType": "bool",
          "name": "isApproved",
          "type": "bool"
        }
      ],
      "stateMutability": "view",
      "type": "function"
    },
    {
      "inputs": [
        {
          "internalType": "address",
          "name": "_Cpnyaddr",
          "type": "address"
        }
      ],
      "name": "getCompanyDetails",
      "outputs": [
        {
          "components": [
            {
              "internalType": "string",
              "name": "Name",
              "type": "string"
            },
            {
              "internalType": "uint256",
              "name": "totalStocks",
              "type": "uint256"
            },
            {
              "internalType": "uint256",
              "name": "stockPrice",
              "type": "uint256"
            },
            {
              "internalType": "bool",
              "name": "isRegistered",
              "type": "bool"
            },
            {
              "internalType": "bool",
              "name": "isApproved",
              "type": "bool"
            }
          ],
          "internalType": "struct CompaniesContract.CompanyDetail",
          "name": "",
          "type": "tuple"
        }
      ],
      "stateMutability": "view",
      "type": "function"
    },
    {
      "inputs": [],
      "name": "getAllCompanies",
      "outputs": [
        {
          "internalType": "address[]",
          "name": "",
          "type": "address[]"
        }
      ],
      "stateMutability": "view",
      "type": "function"
    },
    {
      "inputs": [
        {
          "internalType": "address",
          "name": "_CpnyAddr",
          "type": "address"
        }
      ],
      "name": "isApproved",
      "outputs": [
        {
          "internalType": "bool",
          "name": "",
          "type": "bool"
        }
      ],
      "stateMutability": "view",
      "type": "function"
    },
    {
      "inputs": [
        {
          "internalType": "address",
          "name": "_CpnyAddr",
          "type": "address"
        }
      ],
      "name": "isRegistered",
      "outputs": [
        {
          "internalType": "bool",
          "name": "",
          "type": "bool"
        }
      ],
      "stateMutability": "view",
      "type": "function"
    },
    {
      "inputs": [
        {
          "internalType": "address",
          "name": "_msgSender",
          "type": "address"
        },
        {
          "internalType": "string",
          "name": "_Name",
          "type": "string"
        },
        {
          "internalType": "uint256",
          "name": "_totalStocks",
          "type": "uint256"
        },
        {
          "internalType": "uint256",
          "name": "_stockPrice",
          "type": "uint256"
        }
      ],
      "name": "_requestRegisterMyCompany",
      "outputs": [],
      "stateMutability": "payable",
      "type": "function"
    },
    {
      "inputs": [
        {
          "internalType": "address",
          "name": "_CpnyAddr",
          "type": "address"
        }
      ],
      "name": "_approveCompany",
      "outputs": [],
      "stateMutability": "nonpayable",
      "type": "function"
    }
  ],
  "bytecode": "0x608060405234801561001057600080fd5b5061140a806100206000396000f3fe6080604052600436106100705760003560e01c8063a5bdfed91161004e578063a5bdfed91461011a578063ac77024a14610143578063bf9c2a4c14610184578063c3c5a547146101a057610070565b80630558d3e914610075578063408bf4c3146100b2578063673448dd146100dd575b600080fd5b34801561008157600080fd5b5061009c60048036038101906100979190610b0f565b6101dd565b6040516100a99190610fa1565b60405180910390f35b3480156100be57600080fd5b506100c7610312565b6040516100d49190610e8a565b60405180910390f35b3480156100e957600080fd5b5061010460048036038101906100ff9190610b0f565b6103a0565b6040516101119190610eac565b60405180910390f35b34801561012657600080fd5b50610141600480360381019061013c9190610b0f565b610411565b005b34801561014f57600080fd5b5061016a60048036038101906101659190610b0f565b61059b565b60405161017b959493929190610ec7565b60405180910390f35b61019e60048036038101906101999190610b3c565b610673565b005b3480156101ac57600080fd5b506101c760048036038101906101c29190610b0f565b61092e565b6040516101d49190610eac565b60405180910390f35b6101e561099f565b600260008373ffffffffffffffffffffffffffffffffffffffff1673ffffffffffffffffffffffffffffffffffffffff1681526020019081526020016000206040518060a001604052908160008201805461023f90611129565b80601f016020809104026020016040519081016040528092919081815260200182805461026b90611129565b80156102b85780601f1061028d576101008083540402835291602001916102b8565b820191906000526020600020905b81548152906001019060200180831161029b57829003601f168201915b5050505050815260200160018201548152602001600282015481526020016003820160009054906101000a900460ff161515151581526020016003820160019054906101000a900460ff1615151515815250509050919050565b6060600180548060200260200160405190810160405280929190818152602001828054801561039657602002820191906000526020600020905b8160009054906101000a900473ffffffffffffffffffffffffffffffffffffffff1673ffffffffffffffffffffffffffffffffffffffff168152602001906001019080831161034c575b5050505050905090565b600060011515600260008473ffffffffffffffffffffffffffffffffffffffff1673ffffffffffffffffffffffffffffffffffffffff16815260200190815260200160002060030160019054906101000a900460ff1615151415610407576001905061040c565b600090505b919050565b60011515600260008373ffffffffffffffffffffffffffffffffffffffff1673ffffffffffffffffffffffffffffffffffffffff16815260200190815260200160002060030160009054906101000a900460ff161515146104a7576040517f08c379a000000000000000000000000000000000000000000000000000000000815260040161049e90610f21565b60405180910390fd5b60011515600260008373ffffffffffffffffffffffffffffffffffffffff1673ffffffffffffffffffffffffffffffffffffffff16815260200190815260200160002060030160019054906101000a900460ff1615151461053d576040517f08c379a000000000000000000000000000000000000000000000000000000000815260040161053490610f61565b60405180910390fd5b6001600260008373ffffffffffffffffffffffffffffffffffffffff1673ffffffffffffffffffffffffffffffffffffffff16815260200190815260200160002060030160016101000a81548160ff02191690831515021790555050565b60026020528060005260406000206000915090508060000180546105be90611129565b80601f01602080910402602001604051908101604052809291908181526020018280546105ea90611129565b80156106375780601f1061060c57610100808354040283529160200191610637565b820191906000526020600020905b81548152906001019060200180831161061a57829003601f168201915b5050505050908060010154908060020154908060030160009054906101000a900460ff16908060030160019054906101000a900460ff16905085565b60001515600260008673ffffffffffffffffffffffffffffffffffffffff1673ffffffffffffffffffffffffffffffffffffffff16815260200190815260200160002060030160009054906101000a900460ff16151514610709576040517f08c379a000000000000000000000000000000000000000000000000000000000815260040161070090610f81565b60405180910390fd5b60005b6000805490508110156107a85783805190602001206000828154811061073557610734611233565b5b9060005260206000200160405161074c9190610e73565b60405180910390201415610795576040517f08c379a000000000000000000000000000000000000000000000000000000000815260040161078c90610f41565b60405180910390fd5b80806107a09061118c565b91505061070c565b506040518060a0016040528084815260200183815260200182815260200160011515815260200160001515815250600260008673ffffffffffffffffffffffffffffffffffffffff1673ffffffffffffffffffffffffffffffffffffffff16815260200190815260200160002060008201518160000190805190602001906108319291906109d2565b50602082015181600101556040820151816002015560608201518160030160006101000a81548160ff02191690831515021790555060808201518160030160016101000a81548160ff0219169083151502179055509050506000839080600181540180825580915050600190039060005260206000200160009091909190915090805190602001906108c49291906109d2565b506001849080600181540180825580915050600190039060005260206000200160009091909190916101000a81548173ffffffffffffffffffffffffffffffffffffffff021916908373ffffffffffffffffffffffffffffffffffffffff16021790555050505050565b600060011515600260008473ffffffffffffffffffffffffffffffffffffffff1673ffffffffffffffffffffffffffffffffffffffff16815260200190815260200160002060030160009054906101000a900460ff1615151415610995576001905061099a565b600090505b919050565b6040518060a001604052806060815260200160008152602001600081526020016000151581526020016000151581525090565b8280546109de90611129565b90600052602060002090601f016020900481019282610a005760008555610a47565b82601f10610a1957805160ff1916838001178555610a47565b82800160010185558215610a47579182015b82811115610a46578251825591602001919060010190610a2b565b5b509050610a549190610a58565b5090565b5b80821115610a71576000816000905550600101610a59565b5090565b6000610a88610a8384610fe8565b610fc3565b905082815260208101848484011115610aa457610aa3611296565b5b610aaf8482856110e7565b509392505050565b600081359050610ac6816113a6565b92915050565b600082601f830112610ae157610ae0611291565b5b8135610af1848260208601610a75565b91505092915050565b600081359050610b09816113bd565b92915050565b600060208284031215610b2557610b246112a0565b5b6000610b3384828501610ab7565b91505092915050565b60008060008060808587031215610b5657610b556112a0565b5b6000610b6487828801610ab7565b945050602085013567ffffffffffffffff811115610b8557610b8461129b565b5b610b9187828801610acc565b9350506040610ba287828801610afa565b9250506060610bb387828801610afa565b91505092959194509250565b6000610bcb8383610bd7565b60208301905092915050565b610be08161109f565b82525050565b6000610bf18261103e565b610bfb8185611061565b9350610c0683611019565b8060005b83811015610c37578151610c1e8882610bbf565b9750610c2983611054565b925050600181019050610c0a565b5085935050505092915050565b610c4d816110b1565b82525050565b610c5c816110b1565b82525050565b60008154610c6f81611129565b610c798186611072565b94506001821660008114610c945760018114610ca557610cd8565b60ff19831686528186019350610cd8565b610cae85611029565b60005b83811015610cd057815481890152600182019150602081019050610cb1565b838801955050505b50505092915050565b6000610cec82611049565b610cf6818561107d565b9350610d068185602086016110f6565b610d0f816112a5565b840191505092915050565b6000610d2582611049565b610d2f818561108e565b9350610d3f8185602086016110f6565b610d48816112a5565b840191505092915050565b6000610d60602a8361108e565b9150610d6b826112b6565b604082019050919050565b6000610d83601b8361108e565b9150610d8e82611305565b602082019050919050565b6000610da6601b8361108e565b9150610db18261132e565b602082019050919050565b6000610dc9602a8361108e565b9150610dd482611357565b604082019050919050565b600060a0830160008301518482036000860152610dfc8282610ce1565b9150506020830151610e116020860182610e55565b506040830151610e246040860182610e55565b506060830151610e376060860182610c44565b506080830151610e4a6080860182610c44565b508091505092915050565b610e5e816110dd565b82525050565b610e6d816110dd565b82525050565b6000610e7f8284610c62565b915081905092915050565b60006020820190508181036000830152610ea48184610be6565b905092915050565b6000602082019050610ec16000830184610c53565b92915050565b600060a0820190508181036000830152610ee18188610d1a565b9050610ef06020830187610e64565b610efd6040830186610e64565b610f0a6060830185610c53565b610f176080830184610c53565b9695505050505050565b60006020820190508181036000830152610f3a81610d53565b9050919050565b60006020820190508181036000830152610f5a81610d76565b9050919050565b60006020820190508181036000830152610f7a81610d99565b9050919050565b60006020820190508181036000830152610f9a81610dbc565b9050919050565b60006020820190508181036000830152610fbb8184610ddf565b905092915050565b6000610fcd610fde565b9050610fd9828261115b565b919050565b6000604051905090565b600067ffffffffffffffff82111561100357611002611262565b5b61100c826112a5565b9050602081019050919050565b6000819050602082019050919050565b60008190508160005260206000209050919050565b600081519050919050565b600081519050919050565b6000602082019050919050565b600082825260208201905092915050565b600081905092915050565b600082825260208201905092915050565b600082825260208201905092915050565b60006110aa826110bd565b9050919050565b60008115159050919050565b600073ffffffffffffffffffffffffffffffffffffffff82169050919050565b6000819050919050565b82818337600083830152505050565b60005b838110156111145780820151818401526020810190506110f9565b83811115611123576000848401525b50505050565b6000600282049050600182168061114157607f821691505b6020821081141561115557611154611204565b5b50919050565b611164826112a5565b810181811067ffffffffffffffff8211171561118357611182611262565b5b80604052505050565b6000611197826110dd565b91507fffffffffffffffffffffffffffffffffffffffffffffffffffffffffffffffff8214156111ca576111c96111d5565b5b600182019050919050565b7f4e487b7100000000000000000000000000000000000000000000000000000000600052601160045260246000fd5b7f4e487b7100000000000000000000000000000000000000000000000000000000600052602260045260246000fd5b7f4e487b7100000000000000000000000000000000000000000000000000000000600052603260045260246000fd5b7f4e487b7100000000000000000000000000000000000000000000000000000000600052604160045260246000fd5b600080fd5b600080fd5b600080fd5b600080fd5b6000601f19601f8301169050919050565b7f4e6f207375636820636f6d70616e7920726567697374726174696f6e2072657160008201527f7565737420666f756e6400000000000000000000000000000000000000000000602082015250565b7f436f6d70616e79204e616d6520416c7265616479204578697374730000000000600082015250565b7f436f6d70616e7920697320616c726561647920617070726f7665640000000000600082015250565b7f436f6d70616e7920416c72656164792052656769737465726564206f6e20746860008201527f6973204163636f756e7400000000000000000000000000000000000000000000602082015250565b6113af8161109f565b81146113ba57600080fd5b50565b6113c6816110dd565b81146113d157600080fd5b5056fea2646970667358221220d3a43114016ee0cbe94feee7ce4b12b78cff01e20030256be7363a6367f804d064736f6c63430008070033",
  "immutableReferences": {},
  "source": "pragma solidity 0.8.7;\n\n/// @title Governable Contract\n/// @author github.com/aliimran2000\n/// @notice gives any contract a list of governers\ncontract CompaniesContract {\n    string[] CompanyNamesList;\n    address[] CompanyFounderList;\n\n    constructor() {}\n\n    struct CompanyDetail {\n        string Name;\n        uint256 totalStocks;\n        uint256 stockPrice;\n        bool isRegistered;\n        bool isApproved;\n    }\n\n\n\n    mapping(address => CompanyDetail) public CompaniesDetails;\n\n    function getCompanyDetails(address _Cpnyaddr)\n        public\n        view\n        returns (CompanyDetail memory)\n    {\n        return CompaniesDetails[_Cpnyaddr];\n    }\n\n    function getAllCompanies() public view returns (address[] memory) {\n        return CompanyFounderList;\n    }\n\n    function isApproved(address _CpnyAddr) public view returns (bool) {\n        if (CompaniesDetails[_CpnyAddr].isApproved == true) {\n            return true;\n        } else {\n            return false;\n        }\n    }\n\n    function isRegistered(address _CpnyAddr) public view returns (bool) {\n        if (CompaniesDetails[_CpnyAddr].isRegistered == true) {\n            return true;\n        } else {\n            return false;\n        }\n    }\n\n    function _requestRegisterMyCompany(\n        address _msgSender,\n        string memory _Name,\n        uint256 _totalStocks,\n        uint256 _stockPrice\n    ) public payable {\n        require(\n            CompaniesDetails[_msgSender].isRegistered == false,\n            \"Company Already Registered on this Account\"\n        );\n\n        for (uint256 index = 0; index < CompanyNamesList.length; index++) {\n            require(\n                keccak256(bytes(CompanyNamesList[index])) !=\n                    keccak256(bytes(_Name)),\n                \"Company Name Already Exists\"\n            );\n        }\n\n        //adding to companydetails array\n        CompaniesDetails[_msgSender] = CompanyDetail({\n            Name: _Name,\n            totalStocks: _totalStocks,\n            stockPrice: _stockPrice,\n            isRegistered: true,\n            isApproved: false\n        });\n\n        //adding to list\n        CompanyNamesList.push(_Name);\n        CompanyFounderList.push(_msgSender);\n    }\n    \n        \n    function _approveCompany(address _CpnyAddr) external {\n        require(\n            CompaniesDetails[_CpnyAddr].isRegistered == true,\n            \"No such company registration request found\"\n        );\n        require(\n            CompaniesDetails[_CpnyAddr].isApproved == true,\n            \"Company is already approved\"\n        );\n        CompaniesDetails[_CpnyAddr].isApproved = true;\n    }\n\n    //approve company implmented in  share market\n}\n",
  "sourcePath": "/home/alii/Documents/Share-Market-Place/Logic/contracts/CompaniesContract.sol",
  "compiler": {
    "name": "solc",
    "version": "0.8.7+commit.e28d00a7.Emscripten.clang"
  },
  "schemaVersion": "3.4.2",
  "updatedAt": "2021-08-22T12:03:37.848Z",
  "devdoc": {
    "author": "github.com/aliimran2000",
    "kind": "dev",
    "methods": {},
    "title": "Governable Contract",
    "version": 1
  },
  "userdoc": {
    "kind": "user",
    "methods": {},
    "notice": "gives any contract a list of governers",
    "version": 1
  }
}