{
  "contractName": "CompaniesContract",
  "abi": [
    {
      "inputs": [],
      "stateMutability": "nonpayable",
      "type": "constructor"
    },
    {
      "inputs": [
        {
          "internalType": "address",
          "name": "",
          "type": "address"
        }
      ],
      "name": "CompaniesDetails",
      "outputs": [
        {
          "internalType": "string",
          "name": "Name",
          "type": "string"
        },
        {
          "internalType": "uint256",
          "name": "totalStocks",
          "type": "uint256"
        },
        {
          "internalType": "uint256",
          "name": "stockPrice",
          "type": "uint256"
        },
        {
          "internalType": "bool",
          "name": "isRegistered",
          "type": "bool"
        },
        {
          "internalType": "bool",
          "name": "isApproved",
          "type": "bool"
        }
      ],
      "stateMutability": "view",
      "type": "function"
    },
    {
      "inputs": [
        {
          "internalType": "address",
          "name": "_Cpnyaddr",
          "type": "address"
        }
      ],
      "name": "getCompanyDetails",
      "outputs": [
        {
          "components": [
            {
              "internalType": "string",
              "name": "Name",
              "type": "string"
            },
            {
              "internalType": "uint256",
              "name": "totalStocks",
              "type": "uint256"
            },
            {
              "internalType": "uint256",
              "name": "stockPrice",
              "type": "uint256"
            },
            {
              "internalType": "bool",
              "name": "isRegistered",
              "type": "bool"
            },
            {
              "internalType": "bool",
              "name": "isApproved",
              "type": "bool"
            }
          ],
          "internalType": "struct CompaniesContract.CompanyDetail",
          "name": "",
          "type": "tuple"
        }
      ],
      "stateMutability": "view",
      "type": "function"
    },
    {
      "inputs": [],
      "name": "getAllCompanies",
      "outputs": [
        {
          "internalType": "address[]",
          "name": "",
          "type": "address[]"
        }
      ],
      "stateMutability": "view",
      "type": "function"
    },
    {
      "inputs": [
        {
          "internalType": "address",
          "name": "_CpnyAddr",
          "type": "address"
        }
      ],
      "name": "isApproved",
      "outputs": [
        {
          "internalType": "bool",
          "name": "",
          "type": "bool"
        }
      ],
      "stateMutability": "view",
      "type": "function"
    },
    {
      "inputs": [
        {
          "internalType": "address",
          "name": "_CpnyAddr",
          "type": "address"
        }
      ],
      "name": "isRegistered",
      "outputs": [
        {
          "internalType": "bool",
          "name": "",
          "type": "bool"
        }
      ],
      "stateMutability": "view",
      "type": "function"
    },
    {
      "inputs": [
        {
          "internalType": "address",
          "name": "_msgSender",
          "type": "address"
        },
        {
          "internalType": "string",
          "name": "_Name",
          "type": "string"
        },
        {
          "internalType": "uint256",
          "name": "_totalStocks",
          "type": "uint256"
        },
        {
          "internalType": "uint256",
          "name": "_stockPrice",
          "type": "uint256"
        }
      ],
      "name": "_requestRegisterMyCompany",
      "outputs": [],
      "stateMutability": "payable",
      "type": "function"
    },
    {
      "inputs": [
        {
          "internalType": "address",
          "name": "_CpnyAddr",
          "type": "address"
        }
      ],
      "name": "_approveCompany",
      "outputs": [],
      "stateMutability": "nonpayable",
      "type": "function"
    }
  ],
  "bytecode": "0x608060405234801561001057600080fd5b506111e0806100206000396000f3fe6080604052600436106100705760003560e01c8063a5bdfed91161004e578063a5bdfed91461011a578063ac77024a14610143578063bf9c2a4c14610184578063c3c5a547146101a057610070565b80630558d3e914610075578063408bf4c3146100b2578063673448dd146100dd575b600080fd5b34801561008157600080fd5b5061009c600480360381019061009791906109e3565b6101dd565b6040516100a99190610def565b60405180910390f35b3480156100be57600080fd5b506100c7610312565b6040516100d49190610d18565b60405180910390f35b3480156100e957600080fd5b5061010460048036038101906100ff91906109e3565b6103a0565b6040516101119190610d3a565b60405180910390f35b34801561012657600080fd5b50610141600480360381019061013c91906109e3565b610411565b005b34801561014f57600080fd5b5061016a600480360381019061016591906109e3565b61046f565b60405161017b959493929190610d55565b60405180910390f35b61019e60048036038101906101999190610a10565b610547565b005b3480156101ac57600080fd5b506101c760048036038101906101c291906109e3565b610802565b6040516101d49190610d3a565b60405180910390f35b6101e5610873565b600260008373ffffffffffffffffffffffffffffffffffffffff1673ffffffffffffffffffffffffffffffffffffffff1681526020019081526020016000206040518060a001604052908160008201805461023f90610f77565b80601f016020809104026020016040519081016040528092919081815260200182805461026b90610f77565b80156102b85780601f1061028d576101008083540402835291602001916102b8565b820191906000526020600020905b81548152906001019060200180831161029b57829003601f168201915b5050505050815260200160018201548152602001600282015481526020016003820160009054906101000a900460ff161515151581526020016003820160019054906101000a900460ff1615151515815250509050919050565b6060600180548060200260200160405190810160405280929190818152602001828054801561039657602002820191906000526020600020905b8160009054906101000a900473ffffffffffffffffffffffffffffffffffffffff1673ffffffffffffffffffffffffffffffffffffffff168152602001906001019080831161034c575b5050505050905090565b600060011515600260008473ffffffffffffffffffffffffffffffffffffffff1673ffffffffffffffffffffffffffffffffffffffff16815260200190815260200160002060030160019054906101000a900460ff1615151415610407576001905061040c565b600090505b919050565b6001600260008373ffffffffffffffffffffffffffffffffffffffff1673ffffffffffffffffffffffffffffffffffffffff16815260200190815260200160002060030160016101000a81548160ff02191690831515021790555050565b600260205280600052604060002060009150905080600001805461049290610f77565b80601f01602080910402602001604051908101604052809291908181526020018280546104be90610f77565b801561050b5780601f106104e05761010080835404028352916020019161050b565b820191906000526020600020905b8154815290600101906020018083116104ee57829003601f168201915b5050505050908060010154908060020154908060030160009054906101000a900460ff16908060030160019054906101000a900460ff16905085565b60001515600260008673ffffffffffffffffffffffffffffffffffffffff1673ffffffffffffffffffffffffffffffffffffffff16815260200190815260200160002060030160009054906101000a900460ff161515146105dd576040517f08c379a00000000000000000000000000000000000000000000000000000000081526004016105d490610dcf565b60405180910390fd5b60005b60008054905081101561067c5783805190602001206000828154811061060957610608611081565b5b906000526020600020016040516106209190610d01565b60405180910390201415610669576040517f08c379a000000000000000000000000000000000000000000000000000000000815260040161066090610daf565b60405180910390fd5b808061067490610fda565b9150506105e0565b506040518060a0016040528084815260200183815260200182815260200160011515815260200160001515815250600260008673ffffffffffffffffffffffffffffffffffffffff1673ffffffffffffffffffffffffffffffffffffffff16815260200190815260200160002060008201518160000190805190602001906107059291906108a6565b50602082015181600101556040820151816002015560608201518160030160006101000a81548160ff02191690831515021790555060808201518160030160016101000a81548160ff0219169083151502179055509050506000839080600181540180825580915050600190039060005260206000200160009091909190915090805190602001906107989291906108a6565b506001849080600181540180825580915050600190039060005260206000200160009091909190916101000a81548173ffffffffffffffffffffffffffffffffffffffff021916908373ffffffffffffffffffffffffffffffffffffffff16021790555050505050565b600060011515600260008473ffffffffffffffffffffffffffffffffffffffff1673ffffffffffffffffffffffffffffffffffffffff16815260200190815260200160002060030160009054906101000a900460ff1615151415610869576001905061086e565b600090505b919050565b6040518060a001604052806060815260200160008152602001600081526020016000151581526020016000151581525090565b8280546108b290610f77565b90600052602060002090601f0160209004810192826108d4576000855561091b565b82601f106108ed57805160ff191683800117855561091b565b8280016001018555821561091b579182015b8281111561091a5782518255916020019190600101906108ff565b5b509050610928919061092c565b5090565b5b8082111561094557600081600090555060010161092d565b5090565b600061095c61095784610e36565b610e11565b905082815260208101848484011115610978576109776110e4565b5b610983848285610f35565b509392505050565b60008135905061099a8161117c565b92915050565b600082601f8301126109b5576109b46110df565b5b81356109c5848260208601610949565b91505092915050565b6000813590506109dd81611193565b92915050565b6000602082840312156109f9576109f86110ee565b5b6000610a078482850161098b565b91505092915050565b60008060008060808587031215610a2a57610a296110ee565b5b6000610a388782880161098b565b945050602085013567ffffffffffffffff811115610a5957610a586110e9565b5b610a65878288016109a0565b9350506040610a76878288016109ce565b9250506060610a87878288016109ce565b91505092959194509250565b6000610a9f8383610aab565b60208301905092915050565b610ab481610eed565b82525050565b6000610ac582610e8c565b610acf8185610eaf565b9350610ada83610e67565b8060005b83811015610b0b578151610af28882610a93565b9750610afd83610ea2565b925050600181019050610ade565b5085935050505092915050565b610b2181610eff565b82525050565b610b3081610eff565b82525050565b60008154610b4381610f77565b610b4d8186610ec0565b94506001821660008114610b685760018114610b7957610bac565b60ff19831686528186019350610bac565b610b8285610e77565b60005b83811015610ba457815481890152600182019150602081019050610b85565b838801955050505b50505092915050565b6000610bc082610e97565b610bca8185610ecb565b9350610bda818560208601610f44565b610be3816110f3565b840191505092915050565b6000610bf982610e97565b610c038185610edc565b9350610c13818560208601610f44565b610c1c816110f3565b840191505092915050565b6000610c34601b83610edc565b9150610c3f82611104565b602082019050919050565b6000610c57602a83610edc565b9150610c628261112d565b604082019050919050565b600060a0830160008301518482036000860152610c8a8282610bb5565b9150506020830151610c9f6020860182610ce3565b506040830151610cb26040860182610ce3565b506060830151610cc56060860182610b18565b506080830151610cd86080860182610b18565b508091505092915050565b610cec81610f2b565b82525050565b610cfb81610f2b565b82525050565b6000610d0d8284610b36565b915081905092915050565b60006020820190508181036000830152610d328184610aba565b905092915050565b6000602082019050610d4f6000830184610b27565b92915050565b600060a0820190508181036000830152610d6f8188610bee565b9050610d7e6020830187610cf2565b610d8b6040830186610cf2565b610d986060830185610b27565b610da56080830184610b27565b9695505050505050565b60006020820190508181036000830152610dc881610c27565b9050919050565b60006020820190508181036000830152610de881610c4a565b9050919050565b60006020820190508181036000830152610e098184610c6d565b905092915050565b6000610e1b610e2c565b9050610e278282610fa9565b919050565b6000604051905090565b600067ffffffffffffffff821115610e5157610e506110b0565b5b610e5a826110f3565b9050602081019050919050565b6000819050602082019050919050565b60008190508160005260206000209050919050565b600081519050919050565b600081519050919050565b6000602082019050919050565b600082825260208201905092915050565b600081905092915050565b600082825260208201905092915050565b600082825260208201905092915050565b6000610ef882610f0b565b9050919050565b60008115159050919050565b600073ffffffffffffffffffffffffffffffffffffffff82169050919050565b6000819050919050565b82818337600083830152505050565b60005b83811015610f62578082015181840152602081019050610f47565b83811115610f71576000848401525b50505050565b60006002820490506001821680610f8f57607f821691505b60208210811415610fa357610fa2611052565b5b50919050565b610fb2826110f3565b810181811067ffffffffffffffff82111715610fd157610fd06110b0565b5b80604052505050565b6000610fe582610f2b565b91507fffffffffffffffffffffffffffffffffffffffffffffffffffffffffffffffff82141561101857611017611023565b5b600182019050919050565b7f4e487b7100000000000000000000000000000000000000000000000000000000600052601160045260246000fd5b7f4e487b7100000000000000000000000000000000000000000000000000000000600052602260045260246000fd5b7f4e487b7100000000000000000000000000000000000000000000000000000000600052603260045260246000fd5b7f4e487b7100000000000000000000000000000000000000000000000000000000600052604160045260246000fd5b600080fd5b600080fd5b600080fd5b600080fd5b6000601f19601f8301169050919050565b7f436f6d70616e79204e616d6520416c7265616479204578697374730000000000600082015250565b7f436f6d70616e7920416c72656164792052656769737465726564206f6e20746860008201527f6973204163636f756e7400000000000000000000000000000000000000000000602082015250565b61118581610eed565b811461119057600080fd5b50565b61119c81610f2b565b81146111a757600080fd5b5056fea2646970667358221220430630940e8d773159c38c040a1ecedbc1f0752e752fb2485d99a8abc776387164736f6c63430008070033",
  "immutableReferences": {},
  "source": "pragma solidity 0.8.7;\n\n/// @title Governable Contract\n/// @author github.com/aliimran2000\n/// @notice gives any contract a list of governers\ncontract CompaniesContract {\n    string[] CompanyNamesList;\n    address[] CompanyOwnersList;\n\n    constructor() {}\n\n    struct CompanyDetail {\n        string Name;\n        uint256 totalStocks;\n        uint256 stockPrice;\n        bool isRegistered;\n        bool isApproved;\n    }\n\n    mapping(address => CompanyDetail) public CompaniesDetails;\n\n    function getCompanyDetails(address _Cpnyaddr)\n        public\n        view\n        returns (CompanyDetail memory)\n    {\n        return CompaniesDetails[_Cpnyaddr];\n    }\n\n    function getAllCompanies() public view returns (address[] memory) {\n        return CompanyOwnersList;\n    }\n\n    function isApproved(address _CpnyAddr) public view returns (bool) {\n        if (CompaniesDetails[_CpnyAddr].isApproved == true) {\n            return true;\n        } else {\n            return false;\n        }\n    }\n\n    function isRegistered(address _CpnyAddr) public view returns (bool) {\n        if (CompaniesDetails[_CpnyAddr].isRegistered == true) {\n            return true;\n        } else {\n            return false;\n        }\n    }\n\n    function _requestRegisterMyCompany(\n        address _msgSender,\n        string memory _Name,\n        uint256 _totalStocks,\n        uint256 _stockPrice\n    ) public payable {\n        require(\n            CompaniesDetails[_msgSender].isRegistered == false,\n            \"Company Already Registered on this Account\"\n        );\n\n        for (uint256 index = 0; index < CompanyNamesList.length; index++) {\n            require(\n                keccak256(bytes(CompanyNamesList[index])) !=\n                    keccak256(bytes(_Name)),\n                \"Company Name Already Exists\"\n            );\n        }\n\n        //adding to companydetails array\n        CompaniesDetails[_msgSender] = CompanyDetail({\n            Name: _Name,\n            totalStocks: _totalStocks,\n            stockPrice: _stockPrice,\n            isRegistered: true,\n            isApproved: false\n        });\n\n        //adding to list\n        CompanyNamesList.push(_Name);\n        CompanyOwnersList.push(_msgSender);\n    }\n\n    function _approveCompany(address _CpnyAddr) external {\n        CompaniesDetails[_CpnyAddr].isApproved = true;\n    }\n\n    //approve company implmented in  share market\n}\n",
  "sourcePath": "/home/alii/Documents/Share-Market-Place/Logic/contracts/CompaniesContract.sol",
  "compiler": {
    "name": "solc",
    "version": "0.8.7+commit.e28d00a7.Emscripten.clang"
  },
  "schemaVersion": "3.4.2",
  "updatedAt": "2021-08-21T11:47:41.606Z",
  "devdoc": {
    "author": "github.com/aliimran2000",
    "kind": "dev",
    "methods": {},
    "title": "Governable Contract",
    "version": 1
  },
  "userdoc": {
    "kind": "user",
    "methods": {},
    "notice": "gives any contract a list of governers",
    "version": 1
  }
}