{
  "contractName": "Governable",
  "abi": [
    {
      "inputs": [
        {
          "internalType": "string",
          "name": "_Name",
          "type": "string"
        }
      ],
      "stateMutability": "nonpayable",
      "type": "constructor"
    },
    {
      "anonymous": false,
      "inputs": [
        {
          "indexed": true,
          "internalType": "address",
          "name": "newGoverner",
          "type": "address"
        },
        {
          "indexed": false,
          "internalType": "uint256",
          "name": "Governer_ID",
          "type": "uint256"
        },
        {
          "indexed": true,
          "internalType": "address",
          "name": "Addedby",
          "type": "address"
        }
      ],
      "name": "GovernerAdded",
      "type": "event"
    },
    {
      "inputs": [
        {
          "internalType": "uint256",
          "name": "",
          "type": "uint256"
        }
      ],
      "name": "GovernerAddresses",
      "outputs": [
        {
          "internalType": "address",
          "name": "",
          "type": "address"
        }
      ],
      "stateMutability": "view",
      "type": "function"
    },
    {
      "inputs": [],
      "name": "getGoverners",
      "outputs": [
        {
          "internalType": "address[]",
          "name": "",
          "type": "address[]"
        }
      ],
      "stateMutability": "view",
      "type": "function"
    },
    {
      "inputs": [
        {
          "internalType": "address",
          "name": "_newGoverner",
          "type": "address"
        },
        {
          "internalType": "string",
          "name": "_Name",
          "type": "string"
        }
      ],
      "name": "addGoverner",
      "outputs": [],
      "stateMutability": "payable",
      "type": "function"
    },
    {
      "inputs": [
        {
          "internalType": "address",
          "name": "_addr",
          "type": "address"
        }
      ],
      "name": "isGoverner",
      "outputs": [
        {
          "internalType": "bool",
          "name": "",
          "type": "bool"
        }
      ],
      "stateMutability": "view",
      "type": "function"
    }
  ],
  "bytecode": "0x608060405260016000553480156200001657600080fd5b506040516200101c3803806200101c83398181016040528101906200003c9190620002e0565b60003390506040518060400160405280838152602001600054815250600260008373ffffffffffffffffffffffffffffffffffffffff1673ffffffffffffffffffffffffffffffffffffffff1681526020019081526020016000206000820151816000019080519060200190620000b5929190620001b2565b50602082015181600101559050506001819080600181540180825580915050600190039060005260206000200160009091909190916101000a81548173ffffffffffffffffffffffffffffffffffffffff021916908373ffffffffffffffffffffffffffffffffffffffff1602179055508073ffffffffffffffffffffffffffffffffffffffff168173ffffffffffffffffffffffffffffffffffffffff167f4f70ebfe23a892f5373606828229f88e2518e4240b16e4bb9ab8e536befe353a60005460405162000187919062000342565b60405180910390a36001600080828254620001a39190620003be565b92505081905550505062000579565b828054620001c0906200045b565b90600052602060002090601f016020900481019282620001e4576000855562000230565b82601f10620001ff57805160ff191683800117855562000230565b8280016001018555821562000230579182015b828111156200022f57825182559160200191906001019062000212565b5b5090506200023f919062000243565b5090565b5b808211156200025e57600081600090555060010162000244565b5090565b600062000279620002738462000388565b6200035f565b90508281526020810184848401111562000298576200029762000559565b5b620002a584828562000425565b509392505050565b600082601f830112620002c557620002c462000554565b5b8151620002d784826020860162000262565b91505092915050565b600060208284031215620002f957620002f862000563565b5b600082015167ffffffffffffffff8111156200031a57620003196200055e565b5b6200032884828501620002ad565b91505092915050565b6200033c816200041b565b82525050565b600060208201905062000359600083018462000331565b92915050565b60006200036b6200037e565b905062000379828262000491565b919050565b6000604051905090565b600067ffffffffffffffff821115620003a657620003a562000525565b5b620003b18262000568565b9050602081019050919050565b6000620003cb826200041b565b9150620003d8836200041b565b9250827fffffffffffffffffffffffffffffffffffffffffffffffffffffffffffffffff0382111562000410576200040f620004c7565b5b828201905092915050565b6000819050919050565b60005b838110156200044557808201518184015260208101905062000428565b8381111562000455576000848401525b50505050565b600060028204905060018216806200047457607f821691505b602082108114156200048b576200048a620004f6565b5b50919050565b6200049c8262000568565b810181811067ffffffffffffffff82111715620004be57620004bd62000525565b5b80604052505050565b7f4e487b7100000000000000000000000000000000000000000000000000000000600052601160045260246000fd5b7f4e487b7100000000000000000000000000000000000000000000000000000000600052602260045260246000fd5b7f4e487b7100000000000000000000000000000000000000000000000000000000600052604160045260246000fd5b600080fd5b600080fd5b600080fd5b600080fd5b6000601f19601f8301169050919050565b610a9380620005896000396000f3fe60806040526004361061003f5760003560e01c806331ecd8ee146100445780633fbbc7e914610081578063a5068c98146100ac578063d8efd404146100c8575b600080fd5b34801561005057600080fd5b5061006b60048036038101906100669190610560565b610105565b6040516100789190610728565b60405180910390f35b34801561008d57600080fd5b50610096610163565b6040516100a39190610706565b60405180910390f35b6100c660048036038101906100c1919061058d565b6101f1565b005b3480156100d457600080fd5b506100ef60048036038101906100ea91906105e9565b6103e4565b6040516100fc91906106eb565b60405180910390f35b600080600260008473ffffffffffffffffffffffffffffffffffffffff1673ffffffffffffffffffffffffffffffffffffffff1681526020019081526020016000206001015414610159576001905061015e565b600090505b919050565b606060018054806020026020016040519081016040528092919081815260200182805480156101e757602002820191906000526020600020905b8160009054906101000a900473ffffffffffffffffffffffffffffffffffffffff1673ffffffffffffffffffffffffffffffffffffffff168152602001906001019080831161019d575b5050505050905090565b6000600260003373ffffffffffffffffffffffffffffffffffffffff1673ffffffffffffffffffffffffffffffffffffffff168152602001908152602001600020600101541415610277576040517f08c379a000000000000000000000000000000000000000000000000000000000815260040161026e90610743565b60405180910390fd5b60003390506040518060400160405280838152602001600054815250600260008573ffffffffffffffffffffffffffffffffffffffff1673ffffffffffffffffffffffffffffffffffffffff16815260200190815260200160002060008201518160000190805190602001906102ee929190610423565b50602082015181600101559050506001839080600181540180825580915050600190039060005260206000200160009091909190916101000a81548173ffffffffffffffffffffffffffffffffffffffff021916908373ffffffffffffffffffffffffffffffffffffffff1602179055508073ffffffffffffffffffffffffffffffffffffffff168373ffffffffffffffffffffffffffffffffffffffff167f4f70ebfe23a892f5373606828229f88e2518e4240b16e4bb9ab8e536befe353a6000546040516103be9190610763565b60405180910390a360016000808282546103d8919061081e565b92505081905550505050565b600181815481106103f457600080fd5b906000526020600020016000915054906101000a900473ffffffffffffffffffffffffffffffffffffffff1681565b82805461042f906108cb565b90600052602060002090601f0160209004810192826104515760008555610498565b82601f1061046a57805160ff1916838001178555610498565b82800160010185558215610498579182015b8281111561049757825182559160200191906001019061047c565b5b5090506104a591906104a9565b5090565b5b808211156104c25760008160009055506001016104aa565b5090565b60006104d96104d4846107a3565b61077e565b9050828152602081018484840111156104f5576104f46109c0565b5b6105008482856108bc565b509392505050565b60008135905061051781610a2f565b92915050565b600082601f830112610532576105316109bb565b5b81356105428482602086016104c6565b91505092915050565b60008135905061055a81610a46565b92915050565b600060208284031215610576576105756109ca565b5b600061058484828501610508565b91505092915050565b600080604083850312156105a4576105a36109ca565b5b60006105b285828601610508565b925050602083013567ffffffffffffffff8111156105d3576105d26109c5565b5b6105df8582860161051d565b9150509250929050565b6000602082840312156105ff576105fe6109ca565b5b600061060d8482850161054b565b91505092915050565b6000610622838361062e565b60208301905092915050565b61063781610874565b82525050565b61064681610874565b82525050565b6000610657826107e4565b61066181856107fc565b935061066c836107d4565b8060005b8381101561069d5781516106848882610616565b975061068f836107ef565b925050600181019050610670565b5085935050505092915050565b6106b381610886565b82525050565b60006106c660358361080d565b91506106d1826109e0565b604082019050919050565b6106e5816108b2565b82525050565b6000602082019050610700600083018461063d565b92915050565b60006020820190508181036000830152610720818461064c565b905092915050565b600060208201905061073d60008301846106aa565b92915050565b6000602082019050818103600083015261075c816106b9565b9050919050565b600060208201905061077860008301846106dc565b92915050565b6000610788610799565b905061079482826108fd565b919050565b6000604051905090565b600067ffffffffffffffff8211156107be576107bd61098c565b5b6107c7826109cf565b9050602081019050919050565b6000819050602082019050919050565b600081519050919050565b6000602082019050919050565b600082825260208201905092915050565b600082825260208201905092915050565b6000610829826108b2565b9150610834836108b2565b9250827fffffffffffffffffffffffffffffffffffffffffffffffffffffffffffffffff038211156108695761086861092e565b5b828201905092915050565b600061087f82610892565b9050919050565b60008115159050919050565b600073ffffffffffffffffffffffffffffffffffffffff82169050919050565b6000819050919050565b82818337600083830152505050565b600060028204905060018216806108e357607f821691505b602082108114156108f7576108f661095d565b5b50919050565b610906826109cf565b810181811067ffffffffffffffff821117156109255761092461098c565b5b80604052505050565b7f4e487b7100000000000000000000000000000000000000000000000000000000600052601160045260246000fd5b7f4e487b7100000000000000000000000000000000000000000000000000000000600052602260045260246000fd5b7f4e487b7100000000000000000000000000000000000000000000000000000000600052604160045260246000fd5b600080fd5b600080fd5b600080fd5b600080fd5b6000601f19601f8301169050919050565b7f476f7665726e61626c65203a2063616c6c6572206d7573742062652061206d6560008201527f6d626572206f662074686520476f7665726e6572730000000000000000000000602082015250565b610a3881610874565b8114610a4357600080fd5b50565b610a4f816108b2565b8114610a5a57600080fd5b5056fea2646970667358221220b5bcaf3d1366999380dde09729e8541c948730dca06b67f9a1a580edbb037a9a64736f6c63430008070033",
  "immutableReferences": {},
  "source": "pragma solidity 0.8.7;\n\n/// @title Governable Contract\n/// @author github.com/aliimran2000\n/// @notice gives any contract a list of governers\ncontract Governable {\n    constructor(string memory _Name) {\n        address Owner = msg.sender;\n        Governers[Owner] = Governer({\n            Name: _Name,\n            Governer_ID: Governer_ID_Seed\n        });\n        GovernerAddresses.push(Owner);\n\n        emit GovernerAdded(Owner, Governer_ID_Seed, Owner);\n        Governer_ID_Seed += 1;\n    }\n\n    event GovernerAdded(\n        address indexed newGoverner,\n        uint256 Governer_ID,\n        address indexed Addedby\n    );\n\n    uint256 private Governer_ID_Seed = 1;\n    address[] public GovernerAddresses;\n\n    struct Governer {\n        string Name;\n        uint256 Governer_ID;\n    }\n\n    mapping(address => Governer) Governers;\n\n    modifier onlyGoverner() {\n        require(\n            Governers[msg.sender].Governer_ID != 0,\n            \"Governable : caller must be a member of the Governers\"\n        );\n        _;\n    }\n\n    function getGoverners() public view returns (address[] memory) {\n        return GovernerAddresses;\n    }\n\n    function addGoverner(address _newGoverner, string memory _Name)\n        public\n        payable\n        onlyGoverner\n    {\n        address Owner = msg.sender;\n\n        Governers[_newGoverner] = Governer({\n            Name: _Name,\n            Governer_ID: Governer_ID_Seed\n        });\n        GovernerAddresses.push(_newGoverner);\n        emit GovernerAdded(_newGoverner, Governer_ID_Seed, Owner);\n        Governer_ID_Seed += 1;\n    }\n\n    function isGoverner(address _addr) public view returns (bool) {\n        if (Governers[_addr].Governer_ID != 0) {\n            return true;\n        }\n        return false;\n    }\n}\n",
  "sourcePath": "/home/alii/Documents/Share-Market-Place/Logic/contracts/Governable.sol",
  "compiler": {
    "name": "solc",
    "version": "0.8.7+commit.e28d00a7.Emscripten.clang"
  },
  "schemaVersion": "3.4.2",
  "updatedAt": "2021-08-21T11:47:41.637Z",
  "devdoc": {
    "author": "github.com/aliimran2000",
    "kind": "dev",
    "methods": {},
    "title": "Governable Contract",
    "version": 1
  },
  "userdoc": {
    "kind": "user",
    "methods": {},
    "notice": "gives any contract a list of governers",
    "version": 1
  }
}