{
  "contractName": "Governable",
  "abi": [
    {
      "inputs": [
        {
          "internalType": "string",
          "name": "_Name",
          "type": "string"
        }
      ],
      "stateMutability": "nonpayable",
      "type": "constructor"
    },
    {
      "anonymous": false,
      "inputs": [
        {
          "indexed": true,
          "internalType": "address",
          "name": "newGoverner",
          "type": "address"
        },
        {
          "indexed": false,
          "internalType": "uint256",
          "name": "Governer_ID",
          "type": "uint256"
        },
        {
          "indexed": true,
          "internalType": "address",
          "name": "Addedby",
          "type": "address"
        }
      ],
      "name": "GovernerAdded",
      "type": "event"
    },
    {
      "inputs": [
        {
          "internalType": "uint256",
          "name": "",
          "type": "uint256"
        }
      ],
      "name": "GovernerAddresses",
      "outputs": [
        {
          "internalType": "address",
          "name": "",
          "type": "address"
        }
      ],
      "stateMutability": "view",
      "type": "function"
    },
    {
      "inputs": [],
      "name": "getGoverners",
      "outputs": [
        {
          "internalType": "address[]",
          "name": "",
          "type": "address[]"
        }
      ],
      "stateMutability": "view",
      "type": "function"
    },
    {
      "inputs": [
        {
          "internalType": "address",
          "name": "_newGoverner",
          "type": "address"
        },
        {
          "internalType": "string",
          "name": "_Name",
          "type": "string"
        }
      ],
      "name": "addGoverner",
      "outputs": [],
      "stateMutability": "payable",
      "type": "function"
    },
    {
      "inputs": [
        {
          "internalType": "address",
          "name": "_addr",
          "type": "address"
        }
      ],
      "name": "isGoverner",
      "outputs": [
        {
          "internalType": "bool",
          "name": "",
          "type": "bool"
        }
      ],
      "stateMutability": "view",
      "type": "function"
    }
  ],
  "bytecode": "0x608060405260016000553480156200001657600080fd5b506040516200110e3803806200110e83398181016040528101906200003c9190620002e0565b60003390506040518060400160405280838152602001600054815250600260008373ffffffffffffffffffffffffffffffffffffffff1673ffffffffffffffffffffffffffffffffffffffff1681526020019081526020016000206000820151816000019080519060200190620000b5929190620001b2565b50602082015181600101559050506001819080600181540180825580915050600190039060005260206000200160009091909190916101000a81548173ffffffffffffffffffffffffffffffffffffffff021916908373ffffffffffffffffffffffffffffffffffffffff1602179055508073ffffffffffffffffffffffffffffffffffffffff168173ffffffffffffffffffffffffffffffffffffffff167f4f70ebfe23a892f5373606828229f88e2518e4240b16e4bb9ab8e536befe353a60005460405162000187919062000342565b60405180910390a36001600080828254620001a39190620003be565b92505081905550505062000579565b828054620001c0906200045b565b90600052602060002090601f016020900481019282620001e4576000855562000230565b82601f10620001ff57805160ff191683800117855562000230565b8280016001018555821562000230579182015b828111156200022f57825182559160200191906001019062000212565b5b5090506200023f919062000243565b5090565b5b808211156200025e57600081600090555060010162000244565b5090565b600062000279620002738462000388565b6200035f565b90508281526020810184848401111562000298576200029762000559565b5b620002a584828562000425565b509392505050565b600082601f830112620002c557620002c462000554565b5b8151620002d784826020860162000262565b91505092915050565b600060208284031215620002f957620002f862000563565b5b600082015167ffffffffffffffff8111156200031a57620003196200055e565b5b6200032884828501620002ad565b91505092915050565b6200033c816200041b565b82525050565b600060208201905062000359600083018462000331565b92915050565b60006200036b6200037e565b905062000379828262000491565b919050565b6000604051905090565b600067ffffffffffffffff821115620003a657620003a562000525565b5b620003b18262000568565b9050602081019050919050565b6000620003cb826200041b565b9150620003d8836200041b565b9250827fffffffffffffffffffffffffffffffffffffffffffffffffffffffffffffffff0382111562000410576200040f620004c7565b5b828201905092915050565b6000819050919050565b60005b838110156200044557808201518184015260208101905062000428565b8381111562000455576000848401525b50505050565b600060028204905060018216806200047457607f821691505b602082108114156200048b576200048a620004f6565b5b50919050565b6200049c8262000568565b810181811067ffffffffffffffff82111715620004be57620004bd62000525565b5b80604052505050565b7f4e487b7100000000000000000000000000000000000000000000000000000000600052601160045260246000fd5b7f4e487b7100000000000000000000000000000000000000000000000000000000600052602260045260246000fd5b7f4e487b7100000000000000000000000000000000000000000000000000000000600052604160045260246000fd5b600080fd5b600080fd5b600080fd5b600080fd5b6000601f19601f8301169050919050565b610b8580620005896000396000f3fe60806040526004361061003f5760003560e01c806331ecd8ee146100445780633fbbc7e914610081578063a5068c98146100ac578063d8efd404146100c8575b600080fd5b34801561005057600080fd5b5061006b600480360381019061006691906105e6565b610105565b60405161007891906107d1565b60405180910390f35b34801561008d57600080fd5b50610096610163565b6040516100a391906107af565b60405180910390f35b6100c660048036038101906100c19190610613565b6101f1565b005b3480156100d457600080fd5b506100ef60048036038101906100ea919061066f565b61046a565b6040516100fc9190610794565b60405180910390f35b600080600260008473ffffffffffffffffffffffffffffffffffffffff1673ffffffffffffffffffffffffffffffffffffffff1681526020019081526020016000206001015414610159576001905061015e565b600090505b919050565b606060018054806020026020016040519081016040528092919081815260200182805480156101e757602002820191906000526020600020905b8160009054906101000a900473ffffffffffffffffffffffffffffffffffffffff1673ffffffffffffffffffffffffffffffffffffffff168152602001906001019080831161019d575b5050505050905090565b6000600260003373ffffffffffffffffffffffffffffffffffffffff1673ffffffffffffffffffffffffffffffffffffffff168152602001908152602001600020600101541415610277576040517f08c379a000000000000000000000000000000000000000000000000000000000815260040161026e906107ec565b60405180910390fd5b60003390506000600260008573ffffffffffffffffffffffffffffffffffffffff1673ffffffffffffffffffffffffffffffffffffffff168152602001908152602001600020600101541415610302576040517f08c379a00000000000000000000000000000000000000000000000000000000081526004016102f99061080c565b60405180910390fd5b6040518060400160405280838152602001600054815250600260008573ffffffffffffffffffffffffffffffffffffffff1673ffffffffffffffffffffffffffffffffffffffff16815260200190815260200160002060008201518160000190805190602001906103749291906104a9565b50602082015181600101559050506001839080600181540180825580915050600190039060005260206000200160009091909190916101000a81548173ffffffffffffffffffffffffffffffffffffffff021916908373ffffffffffffffffffffffffffffffffffffffff1602179055508073ffffffffffffffffffffffffffffffffffffffff168373ffffffffffffffffffffffffffffffffffffffff167f4f70ebfe23a892f5373606828229f88e2518e4240b16e4bb9ab8e536befe353a600054604051610444919061082c565b60405180910390a3600160008082825461045e91906108e7565b92505081905550505050565b6001818154811061047a57600080fd5b906000526020600020016000915054906101000a900473ffffffffffffffffffffffffffffffffffffffff1681565b8280546104b590610994565b90600052602060002090601f0160209004810192826104d7576000855561051e565b82601f106104f057805160ff191683800117855561051e565b8280016001018555821561051e579182015b8281111561051d578251825591602001919060010190610502565b5b50905061052b919061052f565b5090565b5b80821115610548576000816000905550600101610530565b5090565b600061055f61055a8461086c565b610847565b90508281526020810184848401111561057b5761057a610a89565b5b610586848285610985565b509392505050565b60008135905061059d81610b21565b92915050565b600082601f8301126105b8576105b7610a84565b5b81356105c884826020860161054c565b91505092915050565b6000813590506105e081610b38565b92915050565b6000602082840312156105fc576105fb610a93565b5b600061060a8482850161058e565b91505092915050565b6000806040838503121561062a57610629610a93565b5b60006106388582860161058e565b925050602083013567ffffffffffffffff81111561065957610658610a8e565b5b610665858286016105a3565b9150509250929050565b60006020828403121561068557610684610a93565b5b6000610693848285016105d1565b91505092915050565b60006106a883836106b4565b60208301905092915050565b6106bd8161093d565b82525050565b6106cc8161093d565b82525050565b60006106dd826108ad565b6106e781856108c5565b93506106f28361089d565b8060005b8381101561072357815161070a888261069c565b9750610715836108b8565b9250506001810190506106f6565b5085935050505092915050565b6107398161094f565b82525050565b600061074c6035836108d6565b915061075782610aa9565b604082019050919050565b600061076f6016836108d6565b915061077a82610af8565b602082019050919050565b61078e8161097b565b82525050565b60006020820190506107a960008301846106c3565b92915050565b600060208201905081810360008301526107c981846106d2565b905092915050565b60006020820190506107e66000830184610730565b92915050565b600060208201905081810360008301526108058161073f565b9050919050565b6000602082019050818103600083015261082581610762565b9050919050565b60006020820190506108416000830184610785565b92915050565b6000610851610862565b905061085d82826109c6565b919050565b6000604051905090565b600067ffffffffffffffff82111561088757610886610a55565b5b61089082610a98565b9050602081019050919050565b6000819050602082019050919050565b600081519050919050565b6000602082019050919050565b600082825260208201905092915050565b600082825260208201905092915050565b60006108f28261097b565b91506108fd8361097b565b9250827fffffffffffffffffffffffffffffffffffffffffffffffffffffffffffffffff03821115610932576109316109f7565b5b828201905092915050565b60006109488261095b565b9050919050565b60008115159050919050565b600073ffffffffffffffffffffffffffffffffffffffff82169050919050565b6000819050919050565b82818337600083830152505050565b600060028204905060018216806109ac57607f821691505b602082108114156109c0576109bf610a26565b5b50919050565b6109cf82610a98565b810181811067ffffffffffffffff821117156109ee576109ed610a55565b5b80604052505050565b7f4e487b7100000000000000000000000000000000000000000000000000000000600052601160045260246000fd5b7f4e487b7100000000000000000000000000000000000000000000000000000000600052602260045260246000fd5b7f4e487b7100000000000000000000000000000000000000000000000000000000600052604160045260246000fd5b600080fd5b600080fd5b600080fd5b600080fd5b6000601f19601f8301169050919050565b7f476f7665726e61626c65203a2063616c6c6572206d7573742062652061206d6560008201527f6d626572206f662074686520476f7665726e6572730000000000000000000000602082015250565b7f676f7665726e657220616c726561647920616464656400000000000000000000600082015250565b610b2a8161093d565b8114610b3557600080fd5b50565b610b418161097b565b8114610b4c57600080fd5b5056fea26469706673582212200c35366402dba05b50d3d534e5a3d2ca919c2d5f91a9d9c0404f26f21027768a64736f6c63430008070033",
  "immutableReferences": {},
  "source": "pragma solidity 0.8.7;\n\n/// @title Governable Contract\n/// @author github.com/aliimran2000\n/// @notice gives any contract a list of governers\ncontract Governable {\n    constructor(string memory _Name) {\n        address Owner = msg.sender;\n        Governers[Owner] = Governer({\n            Name: _Name,\n            Governer_ID: Governer_ID_Seed\n        });\n        GovernerAddresses.push(Owner);\n\n        emit GovernerAdded(Owner, Governer_ID_Seed, Owner);\n        Governer_ID_Seed += 1;\n    }\n\n    event GovernerAdded(\n        address indexed newGoverner,\n        uint256 Governer_ID,\n        address indexed Addedby\n    );\n\n    uint256 private Governer_ID_Seed = 1;\n    address[] public GovernerAddresses;\n\n    struct Governer {\n        string Name;\n        uint256 Governer_ID;\n    }\n\n    mapping(address => Governer) Governers;\n\n    modifier onlyGoverner() {\n        require(\n            Governers[msg.sender].Governer_ID != 0,\n            \"Governable : caller must be a member of the Governers\"\n        );\n        _;\n    }\n\n    function getGoverners() public view returns (address[] memory) {\n        return GovernerAddresses;\n    }\n\n    function addGoverner(address _newGoverner, string memory _Name)\n        public\n        payable\n        onlyGoverner\n    {\n        address Owner = msg.sender;\n\n        require(\n            Governers[_newGoverner].Governer_ID != 0,\n            \"governer already added\"\n        );\n\n        Governers[_newGoverner] = Governer({\n            Name: _Name,\n            Governer_ID: Governer_ID_Seed\n        });\n        GovernerAddresses.push(_newGoverner);\n        emit GovernerAdded(_newGoverner, Governer_ID_Seed, Owner);\n        Governer_ID_Seed += 1;\n    }\n\n    function isGoverner(address _addr) public view returns (bool) {\n        if (Governers[_addr].Governer_ID != 0) {\n            return true;\n        }\n        return false;\n    }\n}\n",
  "sourcePath": "/home/alii/Documents/Share-Market-Place/Logic/contracts/Governable.sol",
  "compiler": {
    "name": "solc",
    "version": "0.8.7+commit.e28d00a7.Emscripten.clang"
  },
  "schemaVersion": "3.4.2",
  "updatedAt": "2021-08-23T12:07:16.376Z",
  "devdoc": {
    "author": "github.com/aliimran2000",
    "kind": "dev",
    "methods": {},
    "title": "Governable Contract",
    "version": 1
  },
  "userdoc": {
    "kind": "user",
    "methods": {},
    "notice": "gives any contract a list of governers",
    "version": 1
  }
}