{
  "contractName": "ShareMarket",
  "abi": [
    {
      "inputs": [],
      "stateMutability": "nonpayable",
      "type": "constructor"
    },
    {
      "anonymous": false,
      "inputs": [
        {
          "indexed": true,
          "internalType": "address",
          "name": "newGoverner",
          "type": "address"
        },
        {
          "indexed": false,
          "internalType": "uint256",
          "name": "Governer_ID",
          "type": "uint256"
        },
        {
          "indexed": true,
          "internalType": "address",
          "name": "Addedby",
          "type": "address"
        }
      ],
      "name": "GovernerAdded",
      "type": "event"
    },
    {
      "anonymous": false,
      "inputs": [
        {
          "indexed": true,
          "internalType": "address",
          "name": "Governer",
          "type": "address"
        },
        {
          "indexed": true,
          "internalType": "address",
          "name": "CompanyAccount",
          "type": "address"
        }
      ],
      "name": "companyRegistrationApproved",
      "type": "event"
    },
    {
      "anonymous": false,
      "inputs": [
        {
          "indexed": true,
          "internalType": "address",
          "name": "Owner",
          "type": "address"
        },
        {
          "indexed": false,
          "internalType": "string",
          "name": "Name",
          "type": "string"
        }
      ],
      "name": "companyRegistrationRequested",
      "type": "event"
    },
    {
      "inputs": [
        {
          "internalType": "uint256",
          "name": "",
          "type": "uint256"
        }
      ],
      "name": "GovernerAddresses",
      "outputs": [
        {
          "internalType": "address",
          "name": "",
          "type": "address"
        }
      ],
      "stateMutability": "view",
      "type": "function",
      "constant": true
    },
    {
      "inputs": [
        {
          "internalType": "address",
          "name": "_newGoverner",
          "type": "address"
        },
        {
          "internalType": "string",
          "name": "_Name",
          "type": "string"
        }
      ],
      "name": "addGoverner",
      "outputs": [],
      "stateMutability": "payable",
      "type": "function",
      "payable": true
    },
    {
      "inputs": [],
      "name": "getGoverners",
      "outputs": [
        {
          "internalType": "address[]",
          "name": "",
          "type": "address[]"
        }
      ],
      "stateMutability": "view",
      "type": "function",
      "constant": true
    },
    {
      "inputs": [
        {
          "internalType": "address",
          "name": "_addr",
          "type": "address"
        }
      ],
      "name": "isGoverner",
      "outputs": [
        {
          "internalType": "bool",
          "name": "",
          "type": "bool"
        }
      ],
      "stateMutability": "view",
      "type": "function",
      "constant": true
    },
    {
      "inputs": [
        {
          "internalType": "string",
          "name": "_Name",
          "type": "string"
        },
        {
          "internalType": "uint256",
          "name": "_totalStocks",
          "type": "uint256"
        },
        {
          "internalType": "uint256",
          "name": "_stockPrice",
          "type": "uint256"
        }
      ],
      "name": "requestRegisterMyCompany",
      "outputs": [],
      "stateMutability": "payable",
      "type": "function",
      "payable": true
    },
    {
      "inputs": [
        {
          "internalType": "address",
          "name": "_CpnyAddr",
          "type": "address"
        }
      ],
      "name": "approveCompany",
      "outputs": [],
      "stateMutability": "payable",
      "type": "function",
      "payable": true
    },
    {
      "inputs": [],
      "name": "getAllCompanies",
      "outputs": [
        {
          "internalType": "address[]",
          "name": "",
          "type": "address[]"
        }
      ],
      "stateMutability": "view",
      "type": "function",
      "constant": true
    },
    {
      "inputs": [
        {
          "internalType": "address",
          "name": "_CpnyAddr",
          "type": "address"
        }
      ],
      "name": "isCompanyRegistered",
      "outputs": [
        {
          "internalType": "bool",
          "name": "",
          "type": "bool"
        }
      ],
      "stateMutability": "view",
      "type": "function",
      "constant": true
    },
    {
      "inputs": [
        {
          "internalType": "address",
          "name": "_CpnyAddr",
          "type": "address"
        }
      ],
      "name": "isCompanyApproved",
      "outputs": [
        {
          "internalType": "bool",
          "name": "",
          "type": "bool"
        }
      ],
      "stateMutability": "view",
      "type": "function",
      "constant": true
    }
  ],
  "bytecode": "0x60806040526001600055600a6003553480156200001b57600080fd5b506040518060400160405280601181526020017f436f6e7472616374204465706c6f79657200000000000000000000000000000081525060003390506040518060400160405280838152602001600054815250600260008373ffffffffffffffffffffffffffffffffffffffff1673ffffffffffffffffffffffffffffffffffffffff1681526020019081526020016000206000820151816000019080519060200190620000cb92919062000234565b50602082015181600101559050506001819080600181540180825580915050600190039060005260206000200160009091909190916101000a81548173ffffffffffffffffffffffffffffffffffffffff021916908373ffffffffffffffffffffffffffffffffffffffff1602179055508073ffffffffffffffffffffffffffffffffffffffff168173ffffffffffffffffffffffffffffffffffffffff167f4f70ebfe23a892f5373606828229f88e2518e4240b16e4bb9ab8e536befe353a6000546040516200019d919062000303565b60405180910390a36001600080828254620001b9919062000320565b925050819055505050604051620001d090620002c5565b604051809103906000f080158015620001ed573d6000803e3d6000fd5b50600460006101000a81548173ffffffffffffffffffffffffffffffffffffffff021916908373ffffffffffffffffffffffffffffffffffffffff1602179055506200041b565b828054620002429062000387565b90600052602060002090601f016020900481019282620002665760008555620002b2565b82601f106200028157805160ff1916838001178555620002b2565b82800160010185558215620002b2579182015b82811115620002b157825182559160200191906001019062000294565b5b509050620002c19190620002d3565b5090565b61142a806200172683390190565b5b80821115620002ee576000816000905550600101620002d4565b5090565b620002fd816200037d565b82525050565b60006020820190506200031a6000830184620002f2565b92915050565b60006200032d826200037d565b91506200033a836200037d565b9250827fffffffffffffffffffffffffffffffffffffffffffffffffffffffffffffffff03821115620003725762000371620003bd565b5b828201905092915050565b6000819050919050565b60006002820490506001821680620003a057607f821691505b60208210811415620003b757620003b6620003ec565b5b50919050565b7f4e487b7100000000000000000000000000000000000000000000000000000000600052601160045260246000fd5b7f4e487b7100000000000000000000000000000000000000000000000000000000600052602260045260246000fd5b6112fb806200042b6000396000f3fe6080604052600436106100865760003560e01c8063408bf4c311610059578063408bf4c31461012b57806356ea04a31461015657806362f0dc3f14610193578063a5068c98146101d0578063d8efd404146101ec57610086565b806307498ab51461008b57806331ecd8ee146100a75780633cf079f0146100e45780633fbbc7e914610100575b600080fd5b6100a560048036038101906100a09190610cb5565b610229565b005b3480156100b357600080fd5b506100ce60048036038101906100c99190610bb6565b61030f565b6040516100db9190610ee8565b60405180910390f35b6100fe60048036038101906100f99190610bb6565b61036d565b005b34801561010c57600080fd5b506101156104dd565b6040516101229190610ec6565b60405180910390f35b34801561013757600080fd5b5061014061056b565b60405161014d9190610ec6565b60405180910390f35b34801561016257600080fd5b5061017d60048036038101906101789190610bb6565b610617565b60405161018a9190610ee8565b60405180910390f35b34801561019f57600080fd5b506101ba60048036038101906101b59190610bb6565b6106cb565b6040516101c79190610ee8565b60405180910390f35b6101ea60048036038101906101e59190610be3565b61077f565b005b3480156101f857600080fd5b50610213600480360381019061020e9190610d24565b610972565b6040516102209190610e5f565b60405180910390f35b600460009054906101000a900473ffffffffffffffffffffffffffffffffffffffff1673ffffffffffffffffffffffffffffffffffffffff1663bf9c2a4c338585856040518563ffffffff1660e01b815260040161028a9493929190610e7a565b600060405180830381600087803b1580156102a457600080fd5b505af11580156102b8573d6000803e3d6000fd5b505050503373ffffffffffffffffffffffffffffffffffffffff167f4e199fab9830d6db5ede988d778326db4cd3d8f6a1d9622bbac037e1a478f2e0846040516103029190610f03565b60405180910390a2505050565b600080600260008473ffffffffffffffffffffffffffffffffffffffff1673ffffffffffffffffffffffffffffffffffffffff16815260200190815260200160002060010154146103635760019050610368565b600090505b919050565b6000600260003373ffffffffffffffffffffffffffffffffffffffff1673ffffffffffffffffffffffffffffffffffffffff1681526020019081526020016000206001015414156103f3576040517f08c379a00000000000000000000000000000000000000000000000000000000081526004016103ea90610f25565b60405180910390fd5b600460009054906101000a900473ffffffffffffffffffffffffffffffffffffffff1673ffffffffffffffffffffffffffffffffffffffff1663a5bdfed9826040518263ffffffff1660e01b815260040161044e9190610e5f565b600060405180830381600087803b15801561046857600080fd5b505af115801561047c573d6000803e3d6000fd5b505050508073ffffffffffffffffffffffffffffffffffffffff163373ffffffffffffffffffffffffffffffffffffffff167f7472db9c4ac11f9ad1db79a61d3bf4a082ef5d450947145ac182a4895b1bc59560405160405180910390a350565b6060600180548060200260200160405190810160405280929190818152602001828054801561056157602002820191906000526020600020905b8160009054906101000a900473ffffffffffffffffffffffffffffffffffffffff1673ffffffffffffffffffffffffffffffffffffffff1681526020019060010190808311610517575b5050505050905090565b6060600460009054906101000a900473ffffffffffffffffffffffffffffffffffffffff1673ffffffffffffffffffffffffffffffffffffffff1663408bf4c36040518163ffffffff1660e01b815260040160006040518083038186803b1580156105d557600080fd5b505afa1580156105e9573d6000803e3d6000fd5b505050506040513d6000823e3d601f19601f820116820180604052508101906106129190610c3f565b905090565b6000600460009054906101000a900473ffffffffffffffffffffffffffffffffffffffff1673ffffffffffffffffffffffffffffffffffffffff1663c3c5a547836040518263ffffffff1660e01b81526004016106749190610e5f565b60206040518083038186803b15801561068c57600080fd5b505afa1580156106a0573d6000803e3d6000fd5b505050506040513d601f19601f820116820180604052508101906106c49190610c88565b9050919050565b6000600460009054906101000a900473ffffffffffffffffffffffffffffffffffffffff1673ffffffffffffffffffffffffffffffffffffffff1663673448dd836040518263ffffffff1660e01b81526004016107289190610e5f565b60206040518083038186803b15801561074057600080fd5b505afa158015610754573d6000803e3d6000fd5b505050506040513d601f19601f820116820180604052508101906107789190610c88565b9050919050565b6000600260003373ffffffffffffffffffffffffffffffffffffffff1673ffffffffffffffffffffffffffffffffffffffff168152602001908152602001600020600101541415610805576040517f08c379a00000000000000000000000000000000000000000000000000000000081526004016107fc90610f25565b60405180910390fd5b60003390506040518060400160405280838152602001600054815250600260008573ffffffffffffffffffffffffffffffffffffffff1673ffffffffffffffffffffffffffffffffffffffff168152602001908152602001600020600082015181600001908051906020019061087c9291906109b1565b50602082015181600101559050506001839080600181540180825580915050600190039060005260206000200160009091909190916101000a81548173ffffffffffffffffffffffffffffffffffffffff021916908373ffffffffffffffffffffffffffffffffffffffff1602179055508073ffffffffffffffffffffffffffffffffffffffff168373ffffffffffffffffffffffffffffffffffffffff167f4f70ebfe23a892f5373606828229f88e2518e4240b16e4bb9ab8e536befe353a60005460405161094c9190610f45565b60405180910390a360016000808282546109669190611037565b92505081905550505050565b6001818154811061098257600080fd5b906000526020600020016000915054906101000a900473ffffffffffffffffffffffffffffffffffffffff1681565b8280546109bd90611117565b90600052602060002090601f0160209004810192826109df5760008555610a26565b82601f106109f857805160ff1916838001178555610a26565b82800160010185558215610a26579182015b82811115610a25578251825591602001919060010190610a0a565b5b509050610a339190610a37565b5090565b5b80821115610a50576000816000905550600101610a38565b5090565b6000610a67610a6284610f85565b610f60565b90508083825260208201905082856020860282011115610a8a57610a8961120c565b5b60005b85811015610aba5781610aa08882610b1b565b845260208401935060208301925050600181019050610a8d565b5050509392505050565b6000610ad7610ad284610fb1565b610f60565b905082815260208101848484011115610af357610af2611211565b5b610afe8482856110d5565b509392505050565b600081359050610b1581611280565b92915050565b600081519050610b2a81611280565b92915050565b600082601f830112610b4557610b44611207565b5b8151610b55848260208601610a54565b91505092915050565b600081519050610b6d81611297565b92915050565b600082601f830112610b8857610b87611207565b5b8135610b98848260208601610ac4565b91505092915050565b600081359050610bb0816112ae565b92915050565b600060208284031215610bcc57610bcb61121b565b5b6000610bda84828501610b06565b91505092915050565b60008060408385031215610bfa57610bf961121b565b5b6000610c0885828601610b06565b925050602083013567ffffffffffffffff811115610c2957610c28611216565b5b610c3585828601610b73565b9150509250929050565b600060208284031215610c5557610c5461121b565b5b600082015167ffffffffffffffff811115610c7357610c72611216565b5b610c7f84828501610b30565b91505092915050565b600060208284031215610c9e57610c9d61121b565b5b6000610cac84828501610b5e565b91505092915050565b600080600060608486031215610cce57610ccd61121b565b5b600084013567ffffffffffffffff811115610cec57610ceb611216565b5b610cf886828701610b73565b9350506020610d0986828701610ba1565b9250506040610d1a86828701610ba1565b9150509250925092565b600060208284031215610d3a57610d3961121b565b5b6000610d4884828501610ba1565b91505092915050565b6000610d5d8383610d69565b60208301905092915050565b610d728161108d565b82525050565b610d818161108d565b82525050565b6000610d9282610ff2565b610d9c8185611015565b9350610da783610fe2565b8060005b83811015610dd8578151610dbf8882610d51565b9750610dca83611008565b925050600181019050610dab565b5085935050505092915050565b610dee8161109f565b82525050565b6000610dff82610ffd565b610e098185611026565b9350610e198185602086016110e4565b610e2281611220565b840191505092915050565b6000610e3a603583611026565b9150610e4582611231565b604082019050919050565b610e59816110cb565b82525050565b6000602082019050610e746000830184610d78565b92915050565b6000608082019050610e8f6000830187610d78565b8181036020830152610ea18186610df4565b9050610eb06040830185610e50565b610ebd6060830184610e50565b95945050505050565b60006020820190508181036000830152610ee08184610d87565b905092915050565b6000602082019050610efd6000830184610de5565b92915050565b60006020820190508181036000830152610f1d8184610df4565b905092915050565b60006020820190508181036000830152610f3e81610e2d565b9050919050565b6000602082019050610f5a6000830184610e50565b92915050565b6000610f6a610f7b565b9050610f768282611149565b919050565b6000604051905090565b600067ffffffffffffffff821115610fa057610f9f6111d8565b5b602082029050602081019050919050565b600067ffffffffffffffff821115610fcc57610fcb6111d8565b5b610fd582611220565b9050602081019050919050565b6000819050602082019050919050565b600081519050919050565b600081519050919050565b6000602082019050919050565b600082825260208201905092915050565b600082825260208201905092915050565b6000611042826110cb565b915061104d836110cb565b9250827fffffffffffffffffffffffffffffffffffffffffffffffffffffffffffffffff038211156110825761108161117a565b5b828201905092915050565b6000611098826110ab565b9050919050565b60008115159050919050565b600073ffffffffffffffffffffffffffffffffffffffff82169050919050565b6000819050919050565b82818337600083830152505050565b60005b838110156111025780820151818401526020810190506110e7565b83811115611111576000848401525b50505050565b6000600282049050600182168061112f57607f821691505b60208210811415611143576111426111a9565b5b50919050565b61115282611220565b810181811067ffffffffffffffff82111715611171576111706111d8565b5b80604052505050565b7f4e487b7100000000000000000000000000000000000000000000000000000000600052601160045260246000fd5b7f4e487b7100000000000000000000000000000000000000000000000000000000600052602260045260246000fd5b7f4e487b7100000000000000000000000000000000000000000000000000000000600052604160045260246000fd5b600080fd5b600080fd5b600080fd5b600080fd5b600080fd5b6000601f19601f8301169050919050565b7f476f7665726e61626c65203a2063616c6c6572206d7573742062652061206d6560008201527f6d626572206f662074686520476f7665726e6572730000000000000000000000602082015250565b6112898161108d565b811461129457600080fd5b50565b6112a08161109f565b81146112ab57600080fd5b50565b6112b7816110cb565b81146112c257600080fd5b5056fea2646970667358221220a1e4269f8c9451dbdf1ce63f90db7adb133befd7614c47639e3add93ed6595ed64736f6c63430008070033608060405234801561001057600080fd5b5061140a806100206000396000f3fe6080604052600436106100705760003560e01c8063a5bdfed91161004e578063a5bdfed91461011a578063ac77024a14610143578063bf9c2a4c14610184578063c3c5a547146101a057610070565b80630558d3e914610075578063408bf4c3146100b2578063673448dd146100dd575b600080fd5b34801561008157600080fd5b5061009c60048036038101906100979190610b0f565b6101dd565b6040516100a99190610fa1565b60405180910390f35b3480156100be57600080fd5b506100c7610312565b6040516100d49190610e8a565b60405180910390f35b3480156100e957600080fd5b5061010460048036038101906100ff9190610b0f565b6103a0565b6040516101119190610eac565b60405180910390f35b34801561012657600080fd5b50610141600480360381019061013c9190610b0f565b610411565b005b34801561014f57600080fd5b5061016a60048036038101906101659190610b0f565b61059b565b60405161017b959493929190610ec7565b60405180910390f35b61019e60048036038101906101999190610b3c565b610673565b005b3480156101ac57600080fd5b506101c760048036038101906101c29190610b0f565b61092e565b6040516101d49190610eac565b60405180910390f35b6101e561099f565b600260008373ffffffffffffffffffffffffffffffffffffffff1673ffffffffffffffffffffffffffffffffffffffff1681526020019081526020016000206040518060a001604052908160008201805461023f90611129565b80601f016020809104026020016040519081016040528092919081815260200182805461026b90611129565b80156102b85780601f1061028d576101008083540402835291602001916102b8565b820191906000526020600020905b81548152906001019060200180831161029b57829003601f168201915b5050505050815260200160018201548152602001600282015481526020016003820160009054906101000a900460ff161515151581526020016003820160019054906101000a900460ff1615151515815250509050919050565b6060600180548060200260200160405190810160405280929190818152602001828054801561039657602002820191906000526020600020905b8160009054906101000a900473ffffffffffffffffffffffffffffffffffffffff1673ffffffffffffffffffffffffffffffffffffffff168152602001906001019080831161034c575b5050505050905090565b600060011515600260008473ffffffffffffffffffffffffffffffffffffffff1673ffffffffffffffffffffffffffffffffffffffff16815260200190815260200160002060030160019054906101000a900460ff1615151415610407576001905061040c565b600090505b919050565b60011515600260008373ffffffffffffffffffffffffffffffffffffffff1673ffffffffffffffffffffffffffffffffffffffff16815260200190815260200160002060030160009054906101000a900460ff161515146104a7576040517f08c379a000000000000000000000000000000000000000000000000000000000815260040161049e90610f21565b60405180910390fd5b60011515600260008373ffffffffffffffffffffffffffffffffffffffff1673ffffffffffffffffffffffffffffffffffffffff16815260200190815260200160002060030160019054906101000a900460ff1615151461053d576040517f08c379a000000000000000000000000000000000000000000000000000000000815260040161053490610f61565b60405180910390fd5b6001600260008373ffffffffffffffffffffffffffffffffffffffff1673ffffffffffffffffffffffffffffffffffffffff16815260200190815260200160002060030160016101000a81548160ff02191690831515021790555050565b60026020528060005260406000206000915090508060000180546105be90611129565b80601f01602080910402602001604051908101604052809291908181526020018280546105ea90611129565b80156106375780601f1061060c57610100808354040283529160200191610637565b820191906000526020600020905b81548152906001019060200180831161061a57829003601f168201915b5050505050908060010154908060020154908060030160009054906101000a900460ff16908060030160019054906101000a900460ff16905085565b60001515600260008673ffffffffffffffffffffffffffffffffffffffff1673ffffffffffffffffffffffffffffffffffffffff16815260200190815260200160002060030160009054906101000a900460ff16151514610709576040517f08c379a000000000000000000000000000000000000000000000000000000000815260040161070090610f81565b60405180910390fd5b60005b6000805490508110156107a85783805190602001206000828154811061073557610734611233565b5b9060005260206000200160405161074c9190610e73565b60405180910390201415610795576040517f08c379a000000000000000000000000000000000000000000000000000000000815260040161078c90610f41565b60405180910390fd5b80806107a09061118c565b91505061070c565b506040518060a0016040528084815260200183815260200182815260200160011515815260200160001515815250600260008673ffffffffffffffffffffffffffffffffffffffff1673ffffffffffffffffffffffffffffffffffffffff16815260200190815260200160002060008201518160000190805190602001906108319291906109d2565b50602082015181600101556040820151816002015560608201518160030160006101000a81548160ff02191690831515021790555060808201518160030160016101000a81548160ff0219169083151502179055509050506000839080600181540180825580915050600190039060005260206000200160009091909190915090805190602001906108c49291906109d2565b506001849080600181540180825580915050600190039060005260206000200160009091909190916101000a81548173ffffffffffffffffffffffffffffffffffffffff021916908373ffffffffffffffffffffffffffffffffffffffff16021790555050505050565b600060011515600260008473ffffffffffffffffffffffffffffffffffffffff1673ffffffffffffffffffffffffffffffffffffffff16815260200190815260200160002060030160009054906101000a900460ff1615151415610995576001905061099a565b600090505b919050565b6040518060a001604052806060815260200160008152602001600081526020016000151581526020016000151581525090565b8280546109de90611129565b90600052602060002090601f016020900481019282610a005760008555610a47565b82601f10610a1957805160ff1916838001178555610a47565b82800160010185558215610a47579182015b82811115610a46578251825591602001919060010190610a2b565b5b509050610a549190610a58565b5090565b5b80821115610a71576000816000905550600101610a59565b5090565b6000610a88610a8384610fe8565b610fc3565b905082815260208101848484011115610aa457610aa3611296565b5b610aaf8482856110e7565b509392505050565b600081359050610ac6816113a6565b92915050565b600082601f830112610ae157610ae0611291565b5b8135610af1848260208601610a75565b91505092915050565b600081359050610b09816113bd565b92915050565b600060208284031215610b2557610b246112a0565b5b6000610b3384828501610ab7565b91505092915050565b60008060008060808587031215610b5657610b556112a0565b5b6000610b6487828801610ab7565b945050602085013567ffffffffffffffff811115610b8557610b8461129b565b5b610b9187828801610acc565b9350506040610ba287828801610afa565b9250506060610bb387828801610afa565b91505092959194509250565b6000610bcb8383610bd7565b60208301905092915050565b610be08161109f565b82525050565b6000610bf18261103e565b610bfb8185611061565b9350610c0683611019565b8060005b83811015610c37578151610c1e8882610bbf565b9750610c2983611054565b925050600181019050610c0a565b5085935050505092915050565b610c4d816110b1565b82525050565b610c5c816110b1565b82525050565b60008154610c6f81611129565b610c798186611072565b94506001821660008114610c945760018114610ca557610cd8565b60ff19831686528186019350610cd8565b610cae85611029565b60005b83811015610cd057815481890152600182019150602081019050610cb1565b838801955050505b50505092915050565b6000610cec82611049565b610cf6818561107d565b9350610d068185602086016110f6565b610d0f816112a5565b840191505092915050565b6000610d2582611049565b610d2f818561108e565b9350610d3f8185602086016110f6565b610d48816112a5565b840191505092915050565b6000610d60602a8361108e565b9150610d6b826112b6565b604082019050919050565b6000610d83601b8361108e565b9150610d8e82611305565b602082019050919050565b6000610da6601b8361108e565b9150610db18261132e565b602082019050919050565b6000610dc9602a8361108e565b9150610dd482611357565b604082019050919050565b600060a0830160008301518482036000860152610dfc8282610ce1565b9150506020830151610e116020860182610e55565b506040830151610e246040860182610e55565b506060830151610e376060860182610c44565b506080830151610e4a6080860182610c44565b508091505092915050565b610e5e816110dd565b82525050565b610e6d816110dd565b82525050565b6000610e7f8284610c62565b915081905092915050565b60006020820190508181036000830152610ea48184610be6565b905092915050565b6000602082019050610ec16000830184610c53565b92915050565b600060a0820190508181036000830152610ee18188610d1a565b9050610ef06020830187610e64565b610efd6040830186610e64565b610f0a6060830185610c53565b610f176080830184610c53565b9695505050505050565b60006020820190508181036000830152610f3a81610d53565b9050919050565b60006020820190508181036000830152610f5a81610d76565b9050919050565b60006020820190508181036000830152610f7a81610d99565b9050919050565b60006020820190508181036000830152610f9a81610dbc565b9050919050565b60006020820190508181036000830152610fbb8184610ddf565b905092915050565b6000610fcd610fde565b9050610fd9828261115b565b919050565b6000604051905090565b600067ffffffffffffffff82111561100357611002611262565b5b61100c826112a5565b9050602081019050919050565b6000819050602082019050919050565b60008190508160005260206000209050919050565b600081519050919050565b600081519050919050565b6000602082019050919050565b600082825260208201905092915050565b600081905092915050565b600082825260208201905092915050565b600082825260208201905092915050565b60006110aa826110bd565b9050919050565b60008115159050919050565b600073ffffffffffffffffffffffffffffffffffffffff82169050919050565b6000819050919050565b82818337600083830152505050565b60005b838110156111145780820151818401526020810190506110f9565b83811115611123576000848401525b50505050565b6000600282049050600182168061114157607f821691505b6020821081141561115557611154611204565b5b50919050565b611164826112a5565b810181811067ffffffffffffffff8211171561118357611182611262565b5b80604052505050565b6000611197826110dd565b91507fffffffffffffffffffffffffffffffffffffffffffffffffffffffffffffffff8214156111ca576111c96111d5565b5b600182019050919050565b7f4e487b7100000000000000000000000000000000000000000000000000000000600052601160045260246000fd5b7f4e487b7100000000000000000000000000000000000000000000000000000000600052602260045260246000fd5b7f4e487b7100000000000000000000000000000000000000000000000000000000600052603260045260246000fd5b7f4e487b7100000000000000000000000000000000000000000000000000000000600052604160045260246000fd5b600080fd5b600080fd5b600080fd5b600080fd5b6000601f19601f8301169050919050565b7f4e6f207375636820636f6d70616e7920726567697374726174696f6e2072657160008201527f7565737420666f756e6400000000000000000000000000000000000000000000602082015250565b7f436f6d70616e79204e616d6520416c7265616479204578697374730000000000600082015250565b7f436f6d70616e7920697320616c726561647920617070726f7665640000000000600082015250565b7f436f6d70616e7920416c72656164792052656769737465726564206f6e20746860008201527f6973204163636f756e7400000000000000000000000000000000000000000000602082015250565b6113af8161109f565b81146113ba57600080fd5b50565b6113c6816110dd565b81146113d157600080fd5b5056fea2646970667358221220d3a43114016ee0cbe94feee7ce4b12b78cff01e20030256be7363a6367f804d064736f6c63430008070033",
  "immutableReferences": {},
  "source": "pragma solidity 0.8.7;\n\nimport \"./Governable.sol\";\nimport \"./CompaniesContract.sol\";\n\n/// @title shareholder info\n/// @author aliimran2000\ncontract ShareMarket is Governable(\"Contract Deployer\") {\n    event companyRegistrationRequested(address indexed Owner, string Name);\n    event companyRegistrationApproved(\n        address indexed Governer,\n        address indexed CompanyAccount\n    );\n\n    uint256 CompanyCreationCost = 10;\n\n    CompaniesContract private _Companies;\n\n    \n    constructor() {\n        _Companies = new CompaniesContract();\n    }\n\n    //res = await Contract.methods.requestRegisterMyCompany(\"Acme\",100,1234).send({from:accounts[2],'gas':'1000000'})\n    function requestRegisterMyCompany(\n        string memory _Name,\n        uint256 _totalStocks,\n        uint256 _stockPrice\n    ) public payable {\n        //require(msg.value >= 0);\n        _Companies._requestRegisterMyCompany(\n            msg.sender,\n            _Name,\n            _totalStocks,\n            _stockPrice\n        );\n        emit companyRegistrationRequested(msg.sender, _Name);\n    }\n\n    function approveCompany(address _CpnyAddr) public payable onlyGoverner {\n        //require(msg.value >= 0);\n        _Companies._approveCompany(_CpnyAddr);\n        emit companyRegistrationApproved(msg.sender, _CpnyAddr);\n    }\n\n    function getAllCompanies() public view returns (address[] memory) {\n        return _Companies.getAllCompanies();\n    }\n\n    function isCompanyRegistered(address _CpnyAddr) public view returns (bool) {\n        return _Companies.isRegistered(_CpnyAddr);\n    }\n\n    function isCompanyApproved(address _CpnyAddr) public view returns (bool) {\n        return _Companies.isApproved(_CpnyAddr);\n    }\n}\n",
  "sourcePath": "/home/alii/Documents/Share-Market-Place/Logic/contracts/ShareMarket.sol",
  "compiler": {
    "name": "solc",
    "version": "0.8.7+commit.e28d00a7.Emscripten.clang"
  },
  "schemaVersion": "3.4.2",
  "updatedAt": "2021-08-22T12:05:12.781Z",
  "networkType": "ethereum",
  "devdoc": {
    "author": "aliimran2000",
    "kind": "dev",
    "methods": {},
    "title": "shareholder info",
    "version": 1
  },
  "userdoc": {
    "kind": "user",
    "methods": {},
    "version": 1
  }
}