{
  "contractName": "ShareMarket",
  "abi": [
    {
      "inputs": [],
      "stateMutability": "nonpayable",
      "type": "constructor"
    },
    {
      "anonymous": false,
      "inputs": [
        {
          "indexed": true,
          "internalType": "address",
          "name": "owner",
          "type": "address"
        },
        {
          "indexed": true,
          "internalType": "address",
          "name": "spender",
          "type": "address"
        },
        {
          "indexed": false,
          "internalType": "uint256",
          "name": "value",
          "type": "uint256"
        }
      ],
      "name": "Approval",
      "type": "event"
    },
    {
      "anonymous": false,
      "inputs": [
        {
          "indexed": true,
          "internalType": "address",
          "name": "newGoverner",
          "type": "address"
        },
        {
          "indexed": false,
          "internalType": "uint256",
          "name": "Governer_ID",
          "type": "uint256"
        },
        {
          "indexed": true,
          "internalType": "address",
          "name": "Addedby",
          "type": "address"
        }
      ],
      "name": "GovernerAdded",
      "type": "event"
    },
    {
      "anonymous": false,
      "inputs": [
        {
          "indexed": false,
          "internalType": "address",
          "name": "seller",
          "type": "address"
        },
        {
          "indexed": false,
          "internalType": "address",
          "name": "company",
          "type": "address"
        },
        {
          "indexed": false,
          "internalType": "uint256",
          "name": "numofStocks",
          "type": "uint256"
        },
        {
          "indexed": false,
          "internalType": "uint256",
          "name": "Price",
          "type": "uint256"
        }
      ],
      "name": "StockPostForSale",
      "type": "event"
    },
    {
      "anonymous": false,
      "inputs": [
        {
          "indexed": false,
          "internalType": "address",
          "name": "buyer",
          "type": "address"
        },
        {
          "indexed": false,
          "internalType": "address",
          "name": "seller",
          "type": "address"
        },
        {
          "indexed": false,
          "internalType": "address",
          "name": "company",
          "type": "address"
        },
        {
          "indexed": false,
          "internalType": "uint256",
          "name": "numofStocks",
          "type": "uint256"
        },
        {
          "indexed": false,
          "internalType": "uint256",
          "name": "cost",
          "type": "uint256"
        }
      ],
      "name": "StockPurchase",
      "type": "event"
    },
    {
      "anonymous": false,
      "inputs": [
        {
          "indexed": true,
          "internalType": "address",
          "name": "from",
          "type": "address"
        },
        {
          "indexed": true,
          "internalType": "address",
          "name": "to",
          "type": "address"
        },
        {
          "indexed": false,
          "internalType": "uint256",
          "name": "value",
          "type": "uint256"
        }
      ],
      "name": "Transfer",
      "type": "event"
    },
    {
      "anonymous": false,
      "inputs": [
        {
          "indexed": true,
          "internalType": "address",
          "name": "Governer",
          "type": "address"
        },
        {
          "indexed": true,
          "internalType": "address",
          "name": "CompanyAccount",
          "type": "address"
        }
      ],
      "name": "companyRegistrationApproved",
      "type": "event"
    },
    {
      "anonymous": false,
      "inputs": [
        {
          "indexed": true,
          "internalType": "address",
          "name": "Owner",
          "type": "address"
        },
        {
          "indexed": false,
          "internalType": "string",
          "name": "Name",
          "type": "string"
        }
      ],
      "name": "companyRegistrationRequested",
      "type": "event"
    },
    {
      "anonymous": false,
      "inputs": [
        {
          "indexed": true,
          "internalType": "address",
          "name": "Receiver",
          "type": "address"
        },
        {
          "indexed": false,
          "internalType": "uint256",
          "name": "Amount",
          "type": "uint256"
        }
      ],
      "name": "toppedUp",
      "type": "event"
    },
    {
      "inputs": [
        {
          "internalType": "uint256",
          "name": "",
          "type": "uint256"
        }
      ],
      "name": "GovernerAddresses",
      "outputs": [
        {
          "internalType": "address",
          "name": "",
          "type": "address"
        }
      ],
      "stateMutability": "view",
      "type": "function"
    },
    {
      "inputs": [],
      "name": "TopUP",
      "outputs": [],
      "stateMutability": "payable",
      "type": "function"
    },
    {
      "inputs": [
        {
          "internalType": "address",
          "name": "_newGoverner",
          "type": "address"
        },
        {
          "internalType": "string",
          "name": "_Name",
          "type": "string"
        }
      ],
      "name": "addGoverner",
      "outputs": [],
      "stateMutability": "payable",
      "type": "function"
    },
    {
      "inputs": [
        {
          "internalType": "address",
          "name": "owner",
          "type": "address"
        },
        {
          "internalType": "address",
          "name": "spender",
          "type": "address"
        }
      ],
      "name": "allowance",
      "outputs": [
        {
          "internalType": "uint256",
          "name": "",
          "type": "uint256"
        }
      ],
      "stateMutability": "view",
      "type": "function"
    },
    {
      "inputs": [
        {
          "internalType": "address",
          "name": "spender",
          "type": "address"
        },
        {
          "internalType": "uint256",
          "name": "amount",
          "type": "uint256"
        }
      ],
      "name": "approve",
      "outputs": [
        {
          "internalType": "bool",
          "name": "",
          "type": "bool"
        }
      ],
      "stateMutability": "nonpayable",
      "type": "function"
    },
    {
      "inputs": [
        {
          "internalType": "address",
          "name": "account",
          "type": "address"
        }
      ],
      "name": "balanceOf",
      "outputs": [
        {
          "internalType": "uint256",
          "name": "",
          "type": "uint256"
        }
      ],
      "stateMutability": "view",
      "type": "function"
    },
    {
      "inputs": [],
      "name": "conversionRate",
      "outputs": [
        {
          "internalType": "uint256",
          "name": "",
          "type": "uint256"
        }
      ],
      "stateMutability": "view",
      "type": "function"
    },
    {
      "inputs": [],
      "name": "decimals",
      "outputs": [
        {
          "internalType": "uint8",
          "name": "",
          "type": "uint8"
        }
      ],
      "stateMutability": "view",
      "type": "function"
    },
    {
      "inputs": [
        {
          "internalType": "address",
          "name": "spender",
          "type": "address"
        },
        {
          "internalType": "uint256",
          "name": "subtractedValue",
          "type": "uint256"
        }
      ],
      "name": "decreaseAllowance",
      "outputs": [
        {
          "internalType": "bool",
          "name": "",
          "type": "bool"
        }
      ],
      "stateMutability": "nonpayable",
      "type": "function"
    },
    {
      "inputs": [],
      "name": "getGoverners",
      "outputs": [
        {
          "internalType": "address[]",
          "name": "",
          "type": "address[]"
        }
      ],
      "stateMutability": "view",
      "type": "function"
    },
    {
      "inputs": [
        {
          "internalType": "address",
          "name": "spender",
          "type": "address"
        },
        {
          "internalType": "uint256",
          "name": "addedValue",
          "type": "uint256"
        }
      ],
      "name": "increaseAllowance",
      "outputs": [
        {
          "internalType": "bool",
          "name": "",
          "type": "bool"
        }
      ],
      "stateMutability": "nonpayable",
      "type": "function"
    },
    {
      "inputs": [
        {
          "internalType": "address",
          "name": "_addr",
          "type": "address"
        }
      ],
      "name": "isGoverner",
      "outputs": [
        {
          "internalType": "bool",
          "name": "",
          "type": "bool"
        }
      ],
      "stateMutability": "view",
      "type": "function"
    },
    {
      "inputs": [],
      "name": "name",
      "outputs": [
        {
          "internalType": "string",
          "name": "",
          "type": "string"
        }
      ],
      "stateMutability": "view",
      "type": "function"
    },
    {
      "inputs": [],
      "name": "symbol",
      "outputs": [
        {
          "internalType": "string",
          "name": "",
          "type": "string"
        }
      ],
      "stateMutability": "view",
      "type": "function"
    },
    {
      "inputs": [],
      "name": "totalSupply",
      "outputs": [
        {
          "internalType": "uint256",
          "name": "",
          "type": "uint256"
        }
      ],
      "stateMutability": "view",
      "type": "function"
    },
    {
      "inputs": [
        {
          "internalType": "address",
          "name": "recipient",
          "type": "address"
        },
        {
          "internalType": "uint256",
          "name": "amount",
          "type": "uint256"
        }
      ],
      "name": "transfer",
      "outputs": [
        {
          "internalType": "bool",
          "name": "",
          "type": "bool"
        }
      ],
      "stateMutability": "nonpayable",
      "type": "function"
    },
    {
      "inputs": [
        {
          "internalType": "address",
          "name": "sender",
          "type": "address"
        },
        {
          "internalType": "address",
          "name": "recipient",
          "type": "address"
        },
        {
          "internalType": "uint256",
          "name": "amount",
          "type": "uint256"
        }
      ],
      "name": "transferFrom",
      "outputs": [
        {
          "internalType": "bool",
          "name": "",
          "type": "bool"
        }
      ],
      "stateMutability": "nonpayable",
      "type": "function"
    },
    {
      "inputs": [
        {
          "internalType": "string",
          "name": "_Name",
          "type": "string"
        },
        {
          "internalType": "uint256",
          "name": "_totalStocks",
          "type": "uint256"
        },
        {
          "internalType": "uint256",
          "name": "_stockPrice",
          "type": "uint256"
        }
      ],
      "name": "requestRegisterMyCompany",
      "outputs": [],
      "stateMutability": "payable",
      "type": "function"
    },
    {
      "inputs": [
        {
          "internalType": "address",
          "name": "_CpnyAddr",
          "type": "address"
        }
      ],
      "name": "approveCompany",
      "outputs": [],
      "stateMutability": "payable",
      "type": "function"
    },
    {
      "inputs": [],
      "name": "getAllCompanies",
      "outputs": [
        {
          "internalType": "address[]",
          "name": "",
          "type": "address[]"
        }
      ],
      "stateMutability": "view",
      "type": "function"
    },
    {
      "inputs": [
        {
          "internalType": "address",
          "name": "_CpnyAddr",
          "type": "address"
        }
      ],
      "name": "isCompanyRegistered",
      "outputs": [
        {
          "internalType": "bool",
          "name": "",
          "type": "bool"
        }
      ],
      "stateMutability": "view",
      "type": "function"
    },
    {
      "inputs": [
        {
          "internalType": "address",
          "name": "_CpnyAddr",
          "type": "address"
        }
      ],
      "name": "isCompanyApproved",
      "outputs": [
        {
          "internalType": "bool",
          "name": "",
          "type": "bool"
        }
      ],
      "stateMutability": "view",
      "type": "function"
    },
    {
      "inputs": [
        {
          "internalType": "address",
          "name": "_CpnyAddr",
          "type": "address"
        }
      ],
      "name": "getStockPrice",
      "outputs": [
        {
          "internalType": "uint256",
          "name": "",
          "type": "uint256"
        }
      ],
      "stateMutability": "view",
      "type": "function"
    },
    {
      "inputs": [
        {
          "internalType": "address",
          "name": "_CpnyAddr",
          "type": "address"
        },
        {
          "internalType": "uint256",
          "name": "numOfStocks",
          "type": "uint256"
        }
      ],
      "name": "buyStockFromCompany",
      "outputs": [],
      "stateMutability": "payable",
      "type": "function"
    },
    {
      "inputs": [
        {
          "internalType": "address",
          "name": "_CpnyAddr",
          "type": "address"
        },
        {
          "internalType": "uint256",
          "name": "numberofShares",
          "type": "uint256"
        },
        {
          "internalType": "uint256",
          "name": "Price",
          "type": "uint256"
        }
      ],
      "name": "postStocksforSale",
      "outputs": [
        {
          "internalType": "uint256",
          "name": "",
          "type": "uint256"
        }
      ],
      "stateMutability": "payable",
      "type": "function"
    },
    {
      "inputs": [
        {
          "internalType": "uint256",
          "name": "_saleID",
          "type": "uint256"
        }
      ],
      "name": "buyPostedStock",
      "outputs": [],
      "stateMutability": "payable",
      "type": "function"
    }
  ],
  "bytecode": "0x608060405260016000556105dc6008556101c26009556032600a556005600b556001600c556000600e553480156200003657600080fd5b50620f42406040518060400160405280600a81526020017f53746f636b546f6b656e000000000000000000000000000000000000000000008152506040518060400160405280600381526020017f53545400000000000000000000000000000000000000000000000000000000008152506040518060400160405280601181526020017f436f6e7472616374204465706c6f79657200000000000000000000000000000081525060003390506040518060400160405280838152602001600054815250600260008373ffffffffffffffffffffffffffffffffffffffff1673ffffffffffffffffffffffffffffffffffffffff1681526020019081526020016000206000820151816000019080519060200190620001569291906200048a565b50602082015181600101559050506001819080600181540180825580915050600190039060005260206000200160009091909190916101000a81548173ffffffffffffffffffffffffffffffffffffffff021916908373ffffffffffffffffffffffffffffffffffffffff1602179055508073ffffffffffffffffffffffffffffffffffffffff168173ffffffffffffffffffffffffffffffffffffffff167f4f70ebfe23a892f5373606828229f88e2518e4240b16e4bb9ab8e536befe353a600054604051620002289190620005a2565b60405180910390a36001600080828254620002449190620005d0565b9250508190555050508160069080519060200190620002659291906200048a565b5080600790805190602001906200027e9291906200048a565b5050506200029330826200030660201b60201c565b50604051620002a2906200051b565b604051809103906000f080158015620002bf573d6000803e3d6000fd5b50601060006101000a81548173ffffffffffffffffffffffffffffffffffffffff021916908373ffffffffffffffffffffffffffffffffffffffff160217905550620006f4565b600073ffffffffffffffffffffffffffffffffffffffff168273ffffffffffffffffffffffffffffffffffffffff16141562000379576040517f08c379a0000000000000000000000000000000000000000000000000000000008152600401620003709062000580565b60405180910390fd5b6200038d600083836200048060201b60201c565b8060056000828254620003a19190620005d0565b9250508190555080600360008473ffffffffffffffffffffffffffffffffffffffff1673ffffffffffffffffffffffffffffffffffffffff1681526020019081526020016000206000828254620003f99190620005d0565b925050819055508173ffffffffffffffffffffffffffffffffffffffff16600073ffffffffffffffffffffffffffffffffffffffff167fddf252ad1be2c89b69c2b068fc378daa952ba7f163c4a11628f55a4df523b3ef83604051620004609190620005a2565b60405180910390a36200047c600083836200048560201b60201c565b5050565b505050565b505050565b828054620004989062000637565b90600052602060002090601f016020900481019282620004bc576000855562000508565b82601f10620004d757805160ff191683800117855562000508565b8280016001018555821562000508579182015b8281111562000507578251825591602001919060010190620004ea565b5b50905062000517919062000529565b5090565b6118a78062003bba83390190565b5b80821115620005445760008160009055506001016200052a565b5090565b600062000557601f83620005bf565b91506200056482620006cb565b602082019050919050565b6200057a816200062d565b82525050565b600060208201905081810360008301526200059b8162000548565b9050919050565b6000602082019050620005b960008301846200056f565b92915050565b600082825260208201905092915050565b6000620005dd826200062d565b9150620005ea836200062d565b9250827fffffffffffffffffffffffffffffffffffffffffffffffffffffffffffffffff038211156200062257620006216200066d565b5b828201905092915050565b6000819050919050565b600060028204905060018216806200065057607f821691505b602082108114156200066757620006666200069c565b5b50919050565b7f4e487b7100000000000000000000000000000000000000000000000000000000600052601160045260246000fd5b7f4e487b7100000000000000000000000000000000000000000000000000000000600052602260045260246000fd5b7f45524332303a206d696e7420746f20746865207a65726f206164647265737300600082015250565b6134b680620007046000396000f3fe6080604052600436106101815760003560e01c806356ea04a3116100d157806397f24f9c1161008a578063a6dcd15b11610064578063a6dcd15b14610582578063a9059cbb1461059e578063d8efd404146105db578063dd62ed3e1461061857610181565b806397f24f9c1461050d578063a457c2d714610529578063a5068c981461056657610181565b806356ea04a3146103d05780635ca779e51461040d57806362f0dc3f1461043d57806370a082311461047a5780637ffdf53e146104b757806395d89b41146104e257610181565b8063313ce5671161013e5780633cf079f0116101185780633cf079f0146103215780633d3325e01461033d5780633fbbc7e91461037a578063408bf4c3146103a557610181565b8063313ce5671461027c57806331ecd8ee146102a757806339509351146102e457610181565b806306fdde031461018657806307498ab5146101b1578063095ea7b3146101cd5780630c922ff51461020a57806318160ddd1461021457806323b872dd1461023f575b600080fd5b34801561019257600080fd5b5061019b610655565b6040516101a89190612a7a565b60405180910390f35b6101cb60048036038101906101c69190612568565b6106e7565b005b3480156101d957600080fd5b506101f460048036038101906101ef919061245f565b6107cd565b6040516102019190612a5f565b60405180910390f35b6102126107eb565b005b34801561022057600080fd5b50610229610998565b6040516102369190612c5c565b60405180910390f35b34801561024b57600080fd5b50610266600480360381019061026191906123b0565b6109a2565b6040516102739190612a5f565b60405180910390f35b34801561028857600080fd5b50610291610a9a565b60405161029e9190612c77565b60405180910390f35b3480156102b357600080fd5b506102ce60048036038101906102c99190612343565b610aa3565b6040516102db9190612a5f565b60405180910390f35b3480156102f057600080fd5b5061030b6004803603810190610306919061245f565b610b01565b6040516103189190612a5f565b60405180910390f35b61033b60048036038101906103369190612343565b610bad565b005b34801561034957600080fd5b50610364600480360381019061035f9190612343565b610d1d565b6040516103719190612c5c565b60405180910390f35b34801561038657600080fd5b5061038f610dd1565b60405161039c9190612a3d565b60405180910390f35b3480156103b157600080fd5b506103ba610e5f565b6040516103c79190612a3d565b60405180910390f35b3480156103dc57600080fd5b506103f760048036038101906103f29190612343565b610f0b565b6040516104049190612a5f565b60405180910390f35b6104276004803603810190610422919061249f565b610fbf565b6040516104349190612c5c565b60405180910390f35b34801561044957600080fd5b50610464600480360381019061045f9190612343565b611119565b6040516104719190612a5f565b60405180910390f35b34801561048657600080fd5b506104a1600480360381019061049c9190612343565b6111cd565b6040516104ae9190612c5c565b60405180910390f35b3480156104c357600080fd5b506104cc611216565b6040516104d99190612c5c565b60405180910390f35b3480156104ee57600080fd5b506104f761121c565b6040516105049190612a7a565b60405180910390f35b6105276004803603810190610522919061245f565b6112ae565b005b34801561053557600080fd5b50610550600480360381019061054b919061245f565b6114fb565b60405161055d9190612a5f565b60405180910390f35b610580600480360381019061057b9190612403565b6115e6565b005b61059c600480360381019061059791906125d7565b61185f565b005b3480156105aa57600080fd5b506105c560048036038101906105c0919061245f565b611bab565b6040516105d29190612a5f565b60405180910390f35b3480156105e757600080fd5b5061060260048036038101906105fd91906125d7565b611bc9565b60405161060f9190612915565b60405180910390f35b34801561062457600080fd5b5061063f600480360381019061063a9190612370565b611c08565b60405161064c9190612c5c565b60405180910390f35b60606006805461066490612f15565b80601f016020809104026020016040519081016040528092919081815260200182805461069090612f15565b80156106dd5780601f106106b2576101008083540402835291602001916106dd565b820191906000526020600020905b8154815290600101906020018083116106c057829003601f168201915b5050505050905090565b601060009054906101000a900473ffffffffffffffffffffffffffffffffffffffff1673ffffffffffffffffffffffffffffffffffffffff1663bf9c2a4c338585856040518563ffffffff1660e01b815260040161074894939291906129c8565b600060405180830381600087803b15801561076257600080fd5b505af1158015610776573d6000803e3d6000fd5b505050503373ffffffffffffffffffffffffffffffffffffffff167f4e199fab9830d6db5ede988d778326db4cd3d8f6a1d9622bbac037e1a478f2e0846040516107c09190612a7a565b60405180910390a2505050565b60006107e16107da611c8f565b8484611c97565b6001905092915050565b600034905060008111610833576040517f08c379a000000000000000000000000000000000000000000000000000000000815260040161082a90612bfc565b60405180910390fd5b60003073ffffffffffffffffffffffffffffffffffffffff166370a08231306040518263ffffffff1660e01b815260040161086e9190612915565b60206040518083038186803b15801561088657600080fd5b505afa15801561089a573d6000803e3d6000fd5b505050506040513d601f19601f820116820180604052508101906108be9190612604565b90506000600854836108d09190612df0565b9050670de0b6b3a7640000826108e69190612df0565b8110610927576040517f08c379a000000000000000000000000000000000000000000000000000000000815260040161091e90612b7c565b60405180910390fd5b6109453033670de0b6b3a7640000846109409190612dbf565b611e62565b3373ffffffffffffffffffffffffffffffffffffffff167f0f4b7103986fd267fecf2c0de625f46b30ec3fab29812fc5b24e3fbfce48daea8460405161098b9190612c5c565b60405180910390a2505050565b6000600554905090565b60006109af848484611e62565b6000600460008673ffffffffffffffffffffffffffffffffffffffff1673ffffffffffffffffffffffffffffffffffffffff16815260200190815260200160002060006109fa611c8f565b73ffffffffffffffffffffffffffffffffffffffff1673ffffffffffffffffffffffffffffffffffffffff16815260200190815260200160002054905082811015610a7a576040517f08c379a0000000000000000000000000000000000000000000000000000000008152600401610a7190612b3c565b60405180910390fd5b610a8e85610a86611c8f565b858403611c97565b60019150509392505050565b60006012905090565b600080600260008473ffffffffffffffffffffffffffffffffffffffff1673ffffffffffffffffffffffffffffffffffffffff1681526020019081526020016000206001015414610af75760019050610afc565b600090505b919050565b6000610ba3610b0e611c8f565b848460046000610b1c611c8f565b73ffffffffffffffffffffffffffffffffffffffff1673ffffffffffffffffffffffffffffffffffffffff16815260200190815260200160002060008873ffffffffffffffffffffffffffffffffffffffff1673ffffffffffffffffffffffffffffffffffffffff16815260200190815260200160002054610b9e9190612d69565b611c97565b6001905092915050565b6000600260003373ffffffffffffffffffffffffffffffffffffffff1673ffffffffffffffffffffffffffffffffffffffff168152602001908152602001600020600101541415610c33576040517f08c379a0000000000000000000000000000000000000000000000000000000008152600401610c2a90612b5c565b60405180910390fd5b601060009054906101000a900473ffffffffffffffffffffffffffffffffffffffff1673ffffffffffffffffffffffffffffffffffffffff1663a5bdfed9826040518263ffffffff1660e01b8152600401610c8e9190612915565b600060405180830381600087803b158015610ca857600080fd5b505af1158015610cbc573d6000803e3d6000fd5b505050508073ffffffffffffffffffffffffffffffffffffffff163373ffffffffffffffffffffffffffffffffffffffff167f7472db9c4ac11f9ad1db79a61d3bf4a082ef5d450947145ac182a4895b1bc59560405160405180910390a350565b6000601060009054906101000a900473ffffffffffffffffffffffffffffffffffffffff1673ffffffffffffffffffffffffffffffffffffffff16633d3325e0836040518263ffffffff1660e01b8152600401610d7a9190612915565b60206040518083038186803b158015610d9257600080fd5b505afa158015610da6573d6000803e3d6000fd5b505050506040513d601f19601f82011682018060405250810190610dca9190612604565b9050919050565b60606001805480602002602001604051908101604052809291908181526020018280548015610e5557602002820191906000526020600020905b8160009054906101000a900473ffffffffffffffffffffffffffffffffffffffff1673ffffffffffffffffffffffffffffffffffffffff1681526020019060010190808311610e0b575b5050505050905090565b6060601060009054906101000a900473ffffffffffffffffffffffffffffffffffffffff1673ffffffffffffffffffffffffffffffffffffffff1663408bf4c36040518163ffffffff1660e01b815260040160006040518083038186803b158015610ec957600080fd5b505afa158015610edd573d6000803e3d6000fd5b505050506040513d6000823e3d601f19601f82011682018060405250810190610f0691906124f2565b905090565b6000601060009054906101000a900473ffffffffffffffffffffffffffffffffffffffff1673ffffffffffffffffffffffffffffffffffffffff1663c3c5a547836040518263ffffffff1660e01b8152600401610f689190612915565b60206040518083038186803b158015610f8057600080fd5b505afa158015610f94573d6000803e3d6000fd5b505050506040513d601f19601f82011682018060405250810190610fb8919061253b565b9050919050565b600080610fca6120e6565b905060405180608001604052808673ffffffffffffffffffffffffffffffffffffffff1681526020013373ffffffffffffffffffffffffffffffffffffffff16815260200185815260200184815250600d600083815260200190815260200160002060008201518160000160006101000a81548173ffffffffffffffffffffffffffffffffffffffff021916908373ffffffffffffffffffffffffffffffffffffffff16021790555060208201518160010160006101000a81548173ffffffffffffffffffffffffffffffffffffffff021916908373ffffffffffffffffffffffffffffffffffffffff16021790555060408201518160020155606082015181600301559050507f6160ba8478cb2dc76947d78bf61d196fea742bffa46a27e6a1f12e0a64467dd1338686866040516111069493929190612983565b60405180910390a1809150509392505050565b6000601060009054906101000a900473ffffffffffffffffffffffffffffffffffffffff1673ffffffffffffffffffffffffffffffffffffffff1663673448dd836040518263ffffffff1660e01b81526004016111769190612915565b60206040518083038186803b15801561118e57600080fd5b505afa1580156111a2573d6000803e3d6000fd5b505050506040513d601f19601f820116820180604052508101906111c6919061253b565b9050919050565b6000600360008373ffffffffffffffffffffffffffffffffffffffff1673ffffffffffffffffffffffffffffffffffffffff168152602001908152602001600020549050919050565b60085481565b60606007805461122b90612f15565b80601f016020809104026020016040519081016040528092919081815260200182805461125790612f15565b80156112a45780601f10611279576101008083540402835291602001916112a4565b820191906000526020600020905b81548152906001019060200180831161128757829003601f168201915b5050505050905090565b600115156112bb83611119565b1515146112fd576040517f08c379a00000000000000000000000000000000000000000000000000000000081526004016112f490612b1c565b60405180910390fd5b600061130883610d1d565b9050600082826113189190612df0565b905060003490506000670de0b6b3a7640000600854836113389190612df0565b6113429190612dbf565b905082811015611387576040517f08c379a000000000000000000000000000000000000000000000000000000000815260040161137e90612c1c565b60405180910390fd5b611392338783611e62565b601060009054906101000a900473ffffffffffffffffffffffffffffffffffffffff1673ffffffffffffffffffffffffffffffffffffffff1663aff9afcb87876040518363ffffffff1660e01b81526004016113ef929190612a14565b600060405180830381600087803b15801561140957600080fd5b505af115801561141d573d6000803e3d6000fd5b5050505084600f60003373ffffffffffffffffffffffffffffffffffffffff1673ffffffffffffffffffffffffffffffffffffffff16815260200190815260200160002060008873ffffffffffffffffffffffffffffffffffffffff1673ffffffffffffffffffffffffffffffffffffffff16815260200190815260200160002060008282546114ad9190612d69565b925050819055507ff9582286709f14e92a80f0e5eb35447acb404b047a5b1a516b158a4faa76e2b233878888856040516114eb959493929190612930565b60405180910390a1505050505050565b6000806004600061150a611c8f565b73ffffffffffffffffffffffffffffffffffffffff1673ffffffffffffffffffffffffffffffffffffffff16815260200190815260200160002060008573ffffffffffffffffffffffffffffffffffffffff1673ffffffffffffffffffffffffffffffffffffffff168152602001908152602001600020549050828110156115c7576040517f08c379a00000000000000000000000000000000000000000000000000000000081526004016115be90612c3c565b60405180910390fd5b6115db6115d2611c8f565b85858403611c97565b600191505092915050565b6000600260003373ffffffffffffffffffffffffffffffffffffffff1673ffffffffffffffffffffffffffffffffffffffff16815260200190815260200160002060010154141561166c576040517f08c379a000000000000000000000000000000000000000000000000000000000815260040161166390612b5c565b60405180910390fd5b60003390506000600260008573ffffffffffffffffffffffffffffffffffffffff1673ffffffffffffffffffffffffffffffffffffffff1681526020019081526020016000206001015414156116f7576040517f08c379a00000000000000000000000000000000000000000000000000000000081526004016116ee90612bdc565b60405180910390fd5b6040518060400160405280838152602001600054815250600260008573ffffffffffffffffffffffffffffffffffffffff1673ffffffffffffffffffffffffffffffffffffffff1681526020019081526020016000206000820151816000019080519060200190611769929190612129565b50602082015181600101559050506001839080600181540180825580915050600190039060005260206000200160009091909190916101000a81548173ffffffffffffffffffffffffffffffffffffffff021916908373ffffffffffffffffffffffffffffffffffffffff1602179055508073ffffffffffffffffffffffffffffffffffffffff168373ffffffffffffffffffffffffffffffffffffffff167f4f70ebfe23a892f5373606828229f88e2518e4240b16e4bb9ab8e536befe353a6000546040516118399190612c5c565b60405180910390a360016000808282546118539190612d69565b92505081905550505050565b6000600d600083815260200190815260200160002060020154116118b8576040517f08c379a00000000000000000000000000000000000000000000000000000000081526004016118af90612afc565b60405180910390fd5b6000600d60008381526020019081526020016000206040518060800160405290816000820160009054906101000a900473ffffffffffffffffffffffffffffffffffffffff1673ffffffffffffffffffffffffffffffffffffffff1673ffffffffffffffffffffffffffffffffffffffff1681526020016001820160009054906101000a900473ffffffffffffffffffffffffffffffffffffffff1673ffffffffffffffffffffffffffffffffffffffff1673ffffffffffffffffffffffffffffffffffffffff16815260200160028201548152602001600382015481525050905060008160600151905060003490506000670de0b6b3a7640000600854836119c19190612df0565b6119cb9190612dbf565b905082811015611a10576040517f08c379a0000000000000000000000000000000000000000000000000000000008152600401611a0790612c1c565b60405180910390fd5b611a1f33856020015183611e62565b8360400151600f6000866020015173ffffffffffffffffffffffffffffffffffffffff1673ffffffffffffffffffffffffffffffffffffffff1681526020019081526020016000206000866000015173ffffffffffffffffffffffffffffffffffffffff1673ffffffffffffffffffffffffffffffffffffffff1681526020019081526020016000206000828254611ab79190612e4a565b925050819055508360400151600f60003373ffffffffffffffffffffffffffffffffffffffff1673ffffffffffffffffffffffffffffffffffffffff1681526020019081526020016000206000866000015173ffffffffffffffffffffffffffffffffffffffff1673ffffffffffffffffffffffffffffffffffffffff1681526020019081526020016000206000828254611b529190612d69565b925050819055507ff9582286709f14e92a80f0e5eb35447acb404b047a5b1a516b158a4faa76e2b23385602001518660000151876040015185604051611b9c959493929190612930565b60405180910390a15050505050565b6000611bbf611bb8611c8f565b8484611e62565b6001905092915050565b60018181548110611bd957600080fd5b906000526020600020016000915054906101000a900473ffffffffffffffffffffffffffffffffffffffff1681565b6000600460008473ffffffffffffffffffffffffffffffffffffffff1673ffffffffffffffffffffffffffffffffffffffff16815260200190815260200160002060008373ffffffffffffffffffffffffffffffffffffffff1673ffffffffffffffffffffffffffffffffffffffff16815260200190815260200160002054905092915050565b600033905090565b600073ffffffffffffffffffffffffffffffffffffffff168373ffffffffffffffffffffffffffffffffffffffff161415611d07576040517f08c379a0000000000000000000000000000000000000000000000000000000008152600401611cfe90612bbc565b60405180910390fd5b600073ffffffffffffffffffffffffffffffffffffffff168273ffffffffffffffffffffffffffffffffffffffff161415611d77576040517f08c379a0000000000000000000000000000000000000000000000000000000008152600401611d6e90612abc565b60405180910390fd5b80600460008573ffffffffffffffffffffffffffffffffffffffff1673ffffffffffffffffffffffffffffffffffffffff16815260200190815260200160002060008473ffffffffffffffffffffffffffffffffffffffff1673ffffffffffffffffffffffffffffffffffffffff168152602001908152602001600020819055508173ffffffffffffffffffffffffffffffffffffffff168373ffffffffffffffffffffffffffffffffffffffff167f8c5be1e5ebec7d5bd14f71427d1e84f3dd0314c0f7b2291e5b200ac8c7c3b92583604051611e559190612c5c565b60405180910390a3505050565b600073ffffffffffffffffffffffffffffffffffffffff168373ffffffffffffffffffffffffffffffffffffffff161415611ed2576040517f08c379a0000000000000000000000000000000000000000000000000000000008152600401611ec990612b9c565b60405180910390fd5b600073ffffffffffffffffffffffffffffffffffffffff168273ffffffffffffffffffffffffffffffffffffffff161415611f42576040517f08c379a0000000000000000000000000000000000000000000000000000000008152600401611f3990612a9c565b60405180910390fd5b611f4d83838361211f565b6000600360008573ffffffffffffffffffffffffffffffffffffffff1673ffffffffffffffffffffffffffffffffffffffff16815260200190815260200160002054905081811015611fd4576040517f08c379a0000000000000000000000000000000000000000000000000000000008152600401611fcb90612adc565b60405180910390fd5b818103600360008673ffffffffffffffffffffffffffffffffffffffff1673ffffffffffffffffffffffffffffffffffffffff1681526020019081526020016000208190555081600360008573ffffffffffffffffffffffffffffffffffffffff1673ffffffffffffffffffffffffffffffffffffffff16815260200190815260200160002060008282546120699190612d69565b925050819055508273ffffffffffffffffffffffffffffffffffffffff168473ffffffffffffffffffffffffffffffffffffffff167fddf252ad1be2c89b69c2b068fc378daa952ba7f163c4a11628f55a4df523b3ef846040516120cd9190612c5c565b60405180910390a36120e0848484612124565b50505050565b600064174876e7ff600e54106120ff576000600e819055505b600e600081548092919061211290612f78565b9190505550600e54905090565b505050565b505050565b82805461213590612f15565b90600052602060002090601f016020900481019282612157576000855561219e565b82601f1061217057805160ff191683800117855561219e565b8280016001018555821561219e579182015b8281111561219d578251825591602001919060010190612182565b5b5090506121ab91906121af565b5090565b5b808211156121c85760008160009055506001016121b0565b5090565b60006121df6121da84612cb7565b612c92565b9050808382526020820190508285602086028201111561220257612201613082565b5b60005b8581101561223257816122188882612293565b845260208401935060208301925050600181019050612205565b5050509392505050565b600061224f61224a84612ce3565b612c92565b90508281526020810184848401111561226b5761226a613087565b5b612276848285612ed3565b509392505050565b60008135905061228d8161343b565b92915050565b6000815190506122a28161343b565b92915050565b600082601f8301126122bd576122bc61307d565b5b81516122cd8482602086016121cc565b91505092915050565b6000815190506122e581613452565b92915050565b600082601f830112612300576122ff61307d565b5b813561231084826020860161223c565b91505092915050565b60008135905061232881613469565b92915050565b60008151905061233d81613469565b92915050565b60006020828403121561235957612358613091565b5b60006123678482850161227e565b91505092915050565b6000806040838503121561238757612386613091565b5b60006123958582860161227e565b92505060206123a68582860161227e565b9150509250929050565b6000806000606084860312156123c9576123c8613091565b5b60006123d78682870161227e565b93505060206123e88682870161227e565b92505060406123f986828701612319565b9150509250925092565b6000806040838503121561241a57612419613091565b5b60006124288582860161227e565b925050602083013567ffffffffffffffff8111156124495761244861308c565b5b612455858286016122eb565b9150509250929050565b6000806040838503121561247657612475613091565b5b60006124848582860161227e565b925050602061249585828601612319565b9150509250929050565b6000806000606084860312156124b8576124b7613091565b5b60006124c68682870161227e565b93505060206124d786828701612319565b92505060406124e886828701612319565b9150509250925092565b60006020828403121561250857612507613091565b5b600082015167ffffffffffffffff8111156125265761252561308c565b5b612532848285016122a8565b91505092915050565b60006020828403121561255157612550613091565b5b600061255f848285016122d6565b91505092915050565b60008060006060848603121561258157612580613091565b5b600084013567ffffffffffffffff81111561259f5761259e61308c565b5b6125ab868287016122eb565b93505060206125bc86828701612319565b92505060406125cd86828701612319565b9150509250925092565b6000602082840312156125ed576125ec613091565b5b60006125fb84828501612319565b91505092915050565b60006020828403121561261a57612619613091565b5b60006126288482850161232e565b91505092915050565b600061263d8383612649565b60208301905092915050565b61265281612e7e565b82525050565b61266181612e7e565b82525050565b600061267282612d24565b61267c8185612d47565b935061268783612d14565b8060005b838110156126b857815161269f8882612631565b97506126aa83612d3a565b92505060018101905061268b565b5085935050505092915050565b6126ce81612e90565b82525050565b60006126df82612d2f565b6126e98185612d58565b93506126f9818560208601612ee2565b61270281613096565b840191505092915050565b600061271a602383612d58565b9150612725826130a7565b604082019050919050565b600061273d602283612d58565b9150612748826130f6565b604082019050919050565b6000612760602683612d58565b915061276b82613145565b604082019050919050565b6000612783600e83612d58565b915061278e82613194565b602082019050919050565b60006127a6601483612d58565b91506127b1826131bd565b602082019050919050565b60006127c9602883612d58565b91506127d4826131e6565b604082019050919050565b60006127ec603583612d58565b91506127f782613235565b604082019050919050565b600061280f603683612d58565b915061281a82613284565b604082019050919050565b6000612832602583612d58565b915061283d826132d3565b604082019050919050565b6000612855602483612d58565b915061286082613322565b604082019050919050565b6000612878601683612d58565b915061288382613371565b602082019050919050565b600061289b601b83612d58565b91506128a68261339a565b602082019050919050565b60006128be600e83612d58565b91506128c9826133c3565b602082019050919050565b60006128e1602583612d58565b91506128ec826133ec565b604082019050919050565b61290081612ebc565b82525050565b61290f81612ec6565b82525050565b600060208201905061292a6000830184612658565b92915050565b600060a0820190506129456000830188612658565b6129526020830187612658565b61295f6040830186612658565b61296c60608301856128f7565b61297960808301846128f7565b9695505050505050565b60006080820190506129986000830187612658565b6129a56020830186612658565b6129b260408301856128f7565b6129bf60608301846128f7565b95945050505050565b60006080820190506129dd6000830187612658565b81810360208301526129ef81866126d4565b90506129fe60408301856128f7565b612a0b60608301846128f7565b95945050505050565b6000604082019050612a296000830185612658565b612a3660208301846128f7565b9392505050565b60006020820190508181036000830152612a578184612667565b905092915050565b6000602082019050612a7460008301846126c5565b92915050565b60006020820190508181036000830152612a9481846126d4565b905092915050565b60006020820190508181036000830152612ab58161270d565b9050919050565b60006020820190508181036000830152612ad581612730565b9050919050565b60006020820190508181036000830152612af581612753565b9050919050565b60006020820190508181036000830152612b1581612776565b9050919050565b60006020820190508181036000830152612b3581612799565b9050919050565b60006020820190508181036000830152612b55816127bc565b9050919050565b60006020820190508181036000830152612b75816127df565b9050919050565b60006020820190508181036000830152612b9581612802565b9050919050565b60006020820190508181036000830152612bb581612825565b9050919050565b60006020820190508181036000830152612bd581612848565b9050919050565b60006020820190508181036000830152612bf58161286b565b9050919050565b60006020820190508181036000830152612c158161288e565b9050919050565b60006020820190508181036000830152612c35816128b1565b9050919050565b60006020820190508181036000830152612c55816128d4565b9050919050565b6000602082019050612c7160008301846128f7565b92915050565b6000602082019050612c8c6000830184612906565b92915050565b6000612c9c612cad565b9050612ca88282612f47565b919050565b6000604051905090565b600067ffffffffffffffff821115612cd257612cd161304e565b5b602082029050602081019050919050565b600067ffffffffffffffff821115612cfe57612cfd61304e565b5b612d0782613096565b9050602081019050919050565b6000819050602082019050919050565b600081519050919050565b600081519050919050565b6000602082019050919050565b600082825260208201905092915050565b600082825260208201905092915050565b6000612d7482612ebc565b9150612d7f83612ebc565b9250827fffffffffffffffffffffffffffffffffffffffffffffffffffffffffffffffff03821115612db457612db3612fc1565b5b828201905092915050565b6000612dca82612ebc565b9150612dd583612ebc565b925082612de557612de4612ff0565b5b828204905092915050565b6000612dfb82612ebc565b9150612e0683612ebc565b9250817fffffffffffffffffffffffffffffffffffffffffffffffffffffffffffffffff0483118215151615612e3f57612e3e612fc1565b5b828202905092915050565b6000612e5582612ebc565b9150612e6083612ebc565b925082821015612e7357612e72612fc1565b5b828203905092915050565b6000612e8982612e9c565b9050919050565b60008115159050919050565b600073ffffffffffffffffffffffffffffffffffffffff82169050919050565b6000819050919050565b600060ff82169050919050565b82818337600083830152505050565b60005b83811015612f00578082015181840152602081019050612ee5565b83811115612f0f576000848401525b50505050565b60006002820490506001821680612f2d57607f821691505b60208210811415612f4157612f4061301f565b5b50919050565b612f5082613096565b810181811067ffffffffffffffff82111715612f6f57612f6e61304e565b5b80604052505050565b6000612f8382612ebc565b91507fffffffffffffffffffffffffffffffffffffffffffffffffffffffffffffffff821415612fb657612fb5612fc1565b5b600182019050919050565b7f4e487b7100000000000000000000000000000000000000000000000000000000600052601160045260246000fd5b7f4e487b7100000000000000000000000000000000000000000000000000000000600052601260045260246000fd5b7f4e487b7100000000000000000000000000000000000000000000000000000000600052602260045260246000fd5b7f4e487b7100000000000000000000000000000000000000000000000000000000600052604160045260246000fd5b600080fd5b600080fd5b600080fd5b600080fd5b600080fd5b6000601f19601f8301169050919050565b7f45524332303a207472616e7366657220746f20746865207a65726f206164647260008201527f6573730000000000000000000000000000000000000000000000000000000000602082015250565b7f45524332303a20617070726f766520746f20746865207a65726f20616464726560008201527f7373000000000000000000000000000000000000000000000000000000000000602082015250565b7f45524332303a207472616e7366657220616d6f756e742065786365656473206260008201527f616c616e63650000000000000000000000000000000000000000000000000000602082015250565b7f506f7374206e6f7420666f756e64000000000000000000000000000000000000600082015250565b7f436f6d70616e79206e6f7420617070726f766564000000000000000000000000600082015250565b7f45524332303a207472616e7366657220616d6f756e742065786365656473206160008201527f6c6c6f77616e6365000000000000000000000000000000000000000000000000602082015250565b7f476f7665726e61626c65203a2063616c6c6572206d7573742062652061206d6560008201527f6d626572206f662074686520476f7665726e6572730000000000000000000000602082015250565b7f4e6f7420656e6f75676820746f6b656e7320617661696c61626c6520666f722060008201527f7472616e7366657220617420746865206d6f6d656e7400000000000000000000602082015250565b7f45524332303a207472616e736665722066726f6d20746865207a65726f20616460008201527f6472657373000000000000000000000000000000000000000000000000000000602082015250565b7f45524332303a20617070726f76652066726f6d20746865207a65726f2061646460008201527f7265737300000000000000000000000000000000000000000000000000000000602082015250565b7f676f7665726e657220616c726561647920616464656400000000000000000000600082015250565b7f596f75206e65656420746f2073656e6420736f6d652065746865720000000000600082015250565b7f4e6f7420656e6f75676820535454000000000000000000000000000000000000600082015250565b7f45524332303a2064656372656173656420616c6c6f77616e63652062656c6f7760008201527f207a65726f000000000000000000000000000000000000000000000000000000602082015250565b61344481612e7e565b811461344f57600080fd5b50565b61345b81612e90565b811461346657600080fd5b50565b61347281612ebc565b811461347d57600080fd5b5056fea264697066735822122073ddac71a2d5546e4b9f4e881f1d2f81642ade8585e99fe56565918e2836c6f164736f6c63430008070033608060405234801561001057600080fd5b50611887806100206000396000f3fe6080604052600436106100865760003560e01c8063a5bdfed911610059578063a5bdfed91461016d578063ac77024a14610196578063aff9afcb146101d8578063bf9c2a4c146101f4578063c3c5a5471461021057610086565b80630558d3e91461008b5780633d3325e0146100c8578063408bf4c314610105578063673448dd14610130575b600080fd5b34801561009757600080fd5b506100b260048036038101906100ad9190610d72565b61024d565b6040516100bf919061132e565b60405180910390f35b3480156100d457600080fd5b506100ef60048036038101906100ea9190610d72565b61038c565b6040516100fc9190611350565b60405180910390f35b34801561011157600080fd5b5061011a610427565b60405161012791906111a9565b60405180910390f35b34801561013c57600080fd5b5061015760048036038101906101529190610d72565b6104b5565b60405161016491906111cb565b60405180910390f35b34801561017957600080fd5b50610194600480360381019061018f9190610d72565b610526565b005b3480156101a257600080fd5b506101bd60048036038101906101b89190610d72565b6106b0565b6040516101cf969594939291906111e6565b60405180910390f35b6101f260048036038101906101ed9190610e22565b61078e565b005b61020e60048036038101906102099190610d9f565b6108bf565b005b34801561021c57600080fd5b5061023760048036038101906102329190610d72565b610b8a565b60405161024491906111cb565b60405180910390f35b610255610bfb565b600260008373ffffffffffffffffffffffffffffffffffffffff1673ffffffffffffffffffffffffffffffffffffffff1681526020019081526020016000206040518060c00160405290816000820180546102af90611505565b80601f01602080910402602001604051908101604052809291908181526020018280546102db90611505565b80156103285780601f106102fd57610100808354040283529160200191610328565b820191906000526020600020905b81548152906001019060200180831161030b57829003601f168201915b505050505081526020016001820154815260200160028201548152602001600382015481526020016004820160009054906101000a900460ff161515151581526020016004820160019054906101000a900460ff1615151515815250509050919050565b60006001151561039b836104b5565b1515146103dd576040517f08c379a00000000000000000000000000000000000000000000000000000000081526004016103d49061130e565b60405180910390fd5b600260008373ffffffffffffffffffffffffffffffffffffffff1673ffffffffffffffffffffffffffffffffffffffff168152602001908152602001600020600301549050919050565b606060018054806020026020016040519081016040528092919081815260200182805480156104ab57602002820191906000526020600020905b8160009054906101000a900473ffffffffffffffffffffffffffffffffffffffff1673ffffffffffffffffffffffffffffffffffffffff1681526020019060010190808311610461575b5050505050905090565b600060011515600260008473ffffffffffffffffffffffffffffffffffffffff1673ffffffffffffffffffffffffffffffffffffffff16815260200190815260200160002060040160019054906101000a900460ff161515141561051c5760019050610521565b600090505b919050565b60011515600260008373ffffffffffffffffffffffffffffffffffffffff1673ffffffffffffffffffffffffffffffffffffffff16815260200190815260200160002060040160009054906101000a900460ff161515146105bc576040517f08c379a00000000000000000000000000000000000000000000000000000000081526004016105b39061124e565b60405180910390fd5b60011515600260008373ffffffffffffffffffffffffffffffffffffffff1673ffffffffffffffffffffffffffffffffffffffff16815260200190815260200160002060040160019054906101000a900460ff16151514610652576040517f08c379a0000000000000000000000000000000000000000000000000000000008152600401610649906112ae565b60405180910390fd5b6001600260008373ffffffffffffffffffffffffffffffffffffffff1673ffffffffffffffffffffffffffffffffffffffff16815260200190815260200160002060040160016101000a81548160ff02191690831515021790555050565b60026020528060005260406000206000915090508060000180546106d390611505565b80601f01602080910402602001604051908101604052809291908181526020018280546106ff90611505565b801561074c5780601f106107215761010080835404028352916020019161074c565b820191906000526020600020905b81548152906001019060200180831161072f57829003601f168201915b5050505050908060010154908060020154908060030154908060040160009054906101000a900460ff16908060040160019054906101000a900460ff16905086565b6001151561079b836104b5565b1515146107dd576040517f08c379a00000000000000000000000000000000000000000000000000000000081526004016107d4906112ce565b60405180910390fd5b80600260008473ffffffffffffffffffffffffffffffffffffffff1673ffffffffffffffffffffffffffffffffffffffff168152602001908152602001600020600201541015610862576040517f08c379a00000000000000000000000000000000000000000000000000000000081526004016108599061128e565b60405180910390fd5b80600260008473ffffffffffffffffffffffffffffffffffffffff1673ffffffffffffffffffffffffffffffffffffffff16815260200190815260200160002060020160008282546108b49190611447565b925050819055505050565b60001515600260008673ffffffffffffffffffffffffffffffffffffffff1673ffffffffffffffffffffffffffffffffffffffff16815260200190815260200160002060040160009054906101000a900460ff16151514610955576040517f08c379a000000000000000000000000000000000000000000000000000000000815260040161094c906112ee565b60405180910390fd5b60005b6000805490508110156109f4578380519060200120600082815481106109815761098061160f565b5b906000526020600020016040516109989190611192565b604051809103902014156109e1576040517f08c379a00000000000000000000000000000000000000000000000000000000081526004016109d89061126e565b60405180910390fd5b80806109ec90611568565b915050610958565b506040518060c0016040528084815260200183815260200183815260200182815260200160011515815260200160001515815250600260008673ffffffffffffffffffffffffffffffffffffffff1673ffffffffffffffffffffffffffffffffffffffff1681526020019081526020016000206000820151816000019080519060200190610a83929190610c35565b5060208201518160010155604082015181600201556060820151816003015560808201518160040160006101000a81548160ff02191690831515021790555060a08201518160040160016101000a81548160ff021916908315150217905550905050600083908060018154018082558091505060019003906000526020600020016000909190919091509080519060200190610b20929190610c35565b506001849080600181540180825580915050600190039060005260206000200160009091909190916101000a81548173ffffffffffffffffffffffffffffffffffffffff021916908373ffffffffffffffffffffffffffffffffffffffff16021790555050505050565b600060011515600260008473ffffffffffffffffffffffffffffffffffffffff1673ffffffffffffffffffffffffffffffffffffffff16815260200190815260200160002060040160009054906101000a900460ff1615151415610bf15760019050610bf6565b600090505b919050565b6040518060c00160405280606081526020016000815260200160008152602001600081526020016000151581526020016000151581525090565b828054610c4190611505565b90600052602060002090601f016020900481019282610c635760008555610caa565b82601f10610c7c57805160ff1916838001178555610caa565b82800160010185558215610caa579182015b82811115610ca9578251825591602001919060010190610c8e565b5b509050610cb79190610cbb565b5090565b5b80821115610cd4576000816000905550600101610cbc565b5090565b6000610ceb610ce684611390565b61136b565b905082815260208101848484011115610d0757610d06611672565b5b610d128482856114c3565b509392505050565b600081359050610d2981611823565b92915050565b600082601f830112610d4457610d4361166d565b5b8135610d54848260208601610cd8565b91505092915050565b600081359050610d6c8161183a565b92915050565b600060208284031215610d8857610d8761167c565b5b6000610d9684828501610d1a565b91505092915050565b60008060008060808587031215610db957610db861167c565b5b6000610dc787828801610d1a565b945050602085013567ffffffffffffffff811115610de857610de7611677565b5b610df487828801610d2f565b9350506040610e0587828801610d5d565b9250506060610e1687828801610d5d565b91505092959194509250565b60008060408385031215610e3957610e3861167c565b5b6000610e4785828601610d1a565b9250506020610e5885828601610d5d565b9150509250929050565b6000610e6e8383610e7a565b60208301905092915050565b610e838161147b565b82525050565b6000610e94826113e6565b610e9e8185611409565b9350610ea9836113c1565b8060005b83811015610eda578151610ec18882610e62565b9750610ecc836113fc565b925050600181019050610ead565b5085935050505092915050565b610ef08161148d565b82525050565b610eff8161148d565b82525050565b60008154610f1281611505565b610f1c818661141a565b94506001821660008114610f375760018114610f4857610f7b565b60ff19831686528186019350610f7b565b610f51856113d1565b60005b83811015610f7357815481890152600182019150602081019050610f54565b838801955050505b50505092915050565b6000610f8f826113f1565b610f998185611425565b9350610fa98185602086016114d2565b610fb281611681565b840191505092915050565b6000610fc8826113f1565b610fd28185611436565b9350610fe28185602086016114d2565b610feb81611681565b840191505092915050565b6000611003602a83611436565b915061100e82611692565b604082019050919050565b6000611026601b83611436565b9150611031826116e1565b602082019050919050565b6000611049600e83611436565b91506110548261170a565b602082019050919050565b600061106c601b83611436565b915061107782611733565b602082019050919050565b600061108f601483611436565b915061109a8261175c565b602082019050919050565b60006110b2602a83611436565b91506110bd82611785565b604082019050919050565b60006110d5602583611436565b91506110e0826117d4565b604082019050919050565b600060c08301600083015184820360008601526111088282610f84565b915050602083015161111d6020860182611174565b5060408301516111306040860182611174565b5060608301516111436060860182611174565b5060808301516111566080860182610ee7565b5060a083015161116960a0860182610ee7565b508091505092915050565b61117d816114b9565b82525050565b61118c816114b9565b82525050565b600061119e8284610f05565b915081905092915050565b600060208201905081810360008301526111c38184610e89565b905092915050565b60006020820190506111e06000830184610ef6565b92915050565b600060c08201905081810360008301526112008189610fbd565b905061120f6020830188611183565b61121c6040830187611183565b6112296060830186611183565b6112366080830185610ef6565b61124360a0830184610ef6565b979650505050505050565b6000602082019050818103600083015261126781610ff6565b9050919050565b6000602082019050818103600083015261128781611019565b9050919050565b600060208201905081810360008301526112a78161103c565b9050919050565b600060208201905081810360008301526112c78161105f565b9050919050565b600060208201905081810360008301526112e781611082565b9050919050565b60006020820190508181036000830152611307816110a5565b9050919050565b60006020820190508181036000830152611327816110c8565b9050919050565b6000602082019050818103600083015261134881846110eb565b905092915050565b60006020820190506113656000830184611183565b92915050565b6000611375611386565b90506113818282611537565b919050565b6000604051905090565b600067ffffffffffffffff8211156113ab576113aa61163e565b5b6113b482611681565b9050602081019050919050565b6000819050602082019050919050565b60008190508160005260206000209050919050565b600081519050919050565b600081519050919050565b6000602082019050919050565b600082825260208201905092915050565b600081905092915050565b600082825260208201905092915050565b600082825260208201905092915050565b6000611452826114b9565b915061145d836114b9565b9250828210156114705761146f6115b1565b5b828203905092915050565b600061148682611499565b9050919050565b60008115159050919050565b600073ffffffffffffffffffffffffffffffffffffffff82169050919050565b6000819050919050565b82818337600083830152505050565b60005b838110156114f05780820151818401526020810190506114d5565b838111156114ff576000848401525b50505050565b6000600282049050600182168061151d57607f821691505b60208210811415611531576115306115e0565b5b50919050565b61154082611681565b810181811067ffffffffffffffff8211171561155f5761155e61163e565b5b80604052505050565b6000611573826114b9565b91507fffffffffffffffffffffffffffffffffffffffffffffffffffffffffffffffff8214156115a6576115a56115b1565b5b600182019050919050565b7f4e487b7100000000000000000000000000000000000000000000000000000000600052601160045260246000fd5b7f4e487b7100000000000000000000000000000000000000000000000000000000600052602260045260246000fd5b7f4e487b7100000000000000000000000000000000000000000000000000000000600052603260045260246000fd5b7f4e487b7100000000000000000000000000000000000000000000000000000000600052604160045260246000fd5b600080fd5b600080fd5b600080fd5b600080fd5b6000601f19601f8301169050919050565b7f4e6f207375636820636f6d70616e7920726567697374726174696f6e2072657160008201527f7565737420666f756e6400000000000000000000000000000000000000000000602082015250565b7f436f6d70616e79204e616d6520416c7265616479204578697374730000000000600082015250565b7f4e6f206d6f72652073746f636b73000000000000000000000000000000000000600082015250565b7f436f6d70616e7920697320616c726561647920617070726f7665640000000000600082015250565b7f436f6d70616e79206e6f7420617070726f766564000000000000000000000000600082015250565b7f436f6d70616e7920416c72656164792052656769737465726564206f6e20746860008201527f6973204163636f756e7400000000000000000000000000000000000000000000602082015250565b7f436f6d70616e79206973206e6f7420617070726f766564206f7220726567697360008201527f7465726564000000000000000000000000000000000000000000000000000000602082015250565b61182c8161147b565b811461183757600080fd5b50565b611843816114b9565b811461184e57600080fd5b5056fea2646970667358221220b1a10d850e4b414fabd72c2dfcd50ae74006e73cd8b89fdcbf82c0f87a9f9ac564736f6c63430008070033",
  "immutableReferences": {},
  "source": "pragma solidity 0.8.7;\n\nimport \"./Governable.sol\";\nimport \"./CompaniesContract.sol\";\nimport \"./StockToken.sol\";\n\n//words share and stock are used interchangebly across the project\n/// @title shareholder info\n/// @author aliimran2000\ncontract ShareMarket is Governable(\"Contract Deployer\"), StockToken(1000000) {\n    event companyRegistrationRequested(address indexed Owner, string Name);\n    event companyRegistrationApproved(\n        address indexed Governer,\n        address indexed CompanyAccount\n    );\n\n    event StockPostForSale(\n        address seller,\n        address company,\n        uint256 numofStocks,\n        uint256 Price\n    );\n    event StockPurchase(\n        address buyer,\n        address seller,\n        address company,\n        uint256 numofStocks,\n        uint256 cost\n    );\n\n    uint256 CompanyCreationCost = 450; //STT\n    uint256 GovernerApprovalFee = 50; //STT\n    uint256 PostStockFee = 5; //STT\n    uint256 removeStockFromMarket = 1; //STT\n\n    struct SalePost {\n        address Company;\n        address Seller;\n        uint256 numberofShares;\n        uint256 price;\n    }\n\n    mapping(uint256 => SalePost) SalePosts;\n    uint256 private SaleID = 0;\n\n    function getNewSaleID() internal returns (uint256) {\n        if (uint256(SaleID) >= 99999999999) {\n            SaleID = 0;\n        }\n        SaleID++;\n        return SaleID;\n    }\n\n    mapping(address => mapping(address => uint256)) ShareDetailsMap;\n\n    CompaniesContract private _Companies;\n\n    constructor() {\n        _Companies = new CompaniesContract();\n    }\n\n    //res = await Contract.methods.requestRegisterMyCompany(\"Acme\",100,1234).send({from:accounts[2],'gas':'1000000'})\n    function requestRegisterMyCompany(\n        string memory _Name,\n        uint256 _totalStocks,\n        uint256 _stockPrice\n    ) public payable {\n        //require(msg.value >= 0);\n        _Companies._requestRegisterMyCompany(\n            msg.sender,\n            _Name,\n            _totalStocks,\n            _stockPrice\n        );\n        emit companyRegistrationRequested(msg.sender, _Name);\n    }\n\n    function approveCompany(address _CpnyAddr) public payable onlyGoverner {\n        _Companies._approveCompany(_CpnyAddr);\n        emit companyRegistrationApproved(msg.sender, _CpnyAddr);\n    }\n\n    function getAllCompanies() public view returns (address[] memory) {\n        return _Companies.getAllCompanies();\n    }\n\n    function isCompanyRegistered(address _CpnyAddr) public view returns (bool) {\n        return _Companies.isRegistered(_CpnyAddr);\n    }\n\n    function isCompanyApproved(address _CpnyAddr) public view returns (bool) {\n        return _Companies.isApproved(_CpnyAddr);\n    }\n\n    function getStockPrice(address _CpnyAddr) public view returns (uint256) {\n        return _Companies.getStockPrice(_CpnyAddr);\n    }\n\n    function buyStockFromCompany(address _CpnyAddr, uint256 numOfStocks)\n        public\n        payable\n    {\n        require(isCompanyApproved(_CpnyAddr) == true, \"Company not approved\");\n        uint256 rate = getStockPrice(_CpnyAddr);\n        uint256 cost = rate * numOfStocks;\n        uint256 paymentWei = msg.value;\n        uint256 paymentSTT = (paymentWei * conversionRate) / (10**18);\n        require(paymentSTT >= cost, \"Not enough STT\");\n        _transfer(msg.sender, _CpnyAddr, paymentSTT);\n        _Companies.reduceStock(_CpnyAddr, numOfStocks);\n\n        ShareDetailsMap[msg.sender][_CpnyAddr] += numOfStocks;\n\n        emit StockPurchase(\n            msg.sender,\n            _CpnyAddr,\n            _CpnyAddr,\n            numOfStocks,\n            paymentSTT\n        );\n    }\n\n    function postStocksforSale(\n        address _CpnyAddr,\n        uint256 numberofShares,\n        uint256 Price\n    ) public payable returns (uint256) {\n        uint256 saleID = getNewSaleID();\n        SalePosts[saleID] = SalePost({\n            Company: _CpnyAddr,\n            Seller: msg.sender,\n            numberofShares: numberofShares,\n            price: Price\n        });\n\n        emit StockPostForSale(msg.sender, _CpnyAddr, numberofShares, Price);\n        return saleID;\n    }\n\n    function buyPostedStock(uint256 _saleID) public payable {\n        require(SalePosts[_saleID].numberofShares > 0, \"Post not found\");\n        SalePost memory SP = SalePosts[_saleID];\n\n        uint256 cost = SP.price;\n        uint256 paymentWei = msg.value;\n        uint256 paymentSTT = (paymentWei * conversionRate) / (10**18);\n        require(paymentSTT >= cost, \"Not enough STT\");\n\n        _transfer(msg.sender, SP.Seller, paymentSTT);\n\n        ShareDetailsMap[SP.Seller][SP.Company] -= SP.numberofShares;\n        ShareDetailsMap[msg.sender][SP.Company] += SP.numberofShares;\n\n        emit StockPurchase(\n            msg.sender,\n            SP.Seller,\n            SP.Company,\n            SP.numberofShares,\n            paymentSTT\n        );\n    }\n}\n",
  "sourcePath": "/home/alii/Documents/Share-Market-Place/Logic/contracts/ShareMarket.sol",
  "compiler": {
    "name": "solc",
    "version": "0.8.7+commit.e28d00a7.Emscripten.clang"
  },
  "schemaVersion": "3.4.2",
  "updatedAt": "2021-08-23T12:09:35.437Z",
  "devdoc": {
    "author": "aliimran2000",
    "kind": "dev",
    "methods": {
      "allowance(address,address)": {
        "details": "See {IERC20-allowance}."
      },
      "approve(address,uint256)": {
        "details": "See {IERC20-approve}. Requirements: - `spender` cannot be the zero address."
      },
      "balanceOf(address)": {
        "details": "See {IERC20-balanceOf}."
      },
      "decimals()": {
        "details": "Returns the number of decimals used to get its user representation. For example, if `decimals` equals `2`, a balance of `505` tokens should be displayed to a user as `5,05` (`505 / 10 ** 2`). Tokens usually opt for a value of 18, imitating the relationship between Ether and Wei. This is the value {ERC20} uses, unless this function is overridden; NOTE: This information is only used for _display_ purposes: it in no way affects any of the arithmetic of the contract, including {IERC20-balanceOf} and {IERC20-transfer}."
      },
      "decreaseAllowance(address,uint256)": {
        "details": "Atomically decreases the allowance granted to `spender` by the caller. This is an alternative to {approve} that can be used as a mitigation for problems described in {IERC20-approve}. Emits an {Approval} event indicating the updated allowance. Requirements: - `spender` cannot be the zero address. - `spender` must have allowance for the caller of at least `subtractedValue`."
      },
      "increaseAllowance(address,uint256)": {
        "details": "Atomically increases the allowance granted to `spender` by the caller. This is an alternative to {approve} that can be used as a mitigation for problems described in {IERC20-approve}. Emits an {Approval} event indicating the updated allowance. Requirements: - `spender` cannot be the zero address."
      },
      "name()": {
        "details": "Returns the name of the token."
      },
      "symbol()": {
        "details": "Returns the symbol of the token, usually a shorter version of the name."
      },
      "totalSupply()": {
        "details": "See {IERC20-totalSupply}."
      },
      "transfer(address,uint256)": {
        "details": "See {IERC20-transfer}. Requirements: - `recipient` cannot be the zero address. - the caller must have a balance of at least `amount`."
      },
      "transferFrom(address,address,uint256)": {
        "details": "See {IERC20-transferFrom}. Emits an {Approval} event indicating the updated allowance. This is not required by the EIP. See the note at the beginning of {ERC20}. Requirements: - `sender` and `recipient` cannot be the zero address. - `sender` must have a balance of at least `amount`. - the caller must have allowance for ``sender``'s tokens of at least `amount`."
      }
    },
    "title": "shareholder info",
    "version": 1
  },
  "userdoc": {
    "kind": "user",
    "methods": {},
    "version": 1
  }
}