{
  "contractName": "StockToken",
  "abi": [
    {
      "inputs": [
        {
          "internalType": "uint256",
          "name": "_initialsupply",
          "type": "uint256"
        }
      ],
      "stateMutability": "nonpayable",
      "type": "constructor"
    },
    {
      "anonymous": false,
      "inputs": [
        {
          "indexed": true,
          "internalType": "address",
          "name": "owner",
          "type": "address"
        },
        {
          "indexed": true,
          "internalType": "address",
          "name": "spender",
          "type": "address"
        },
        {
          "indexed": false,
          "internalType": "uint256",
          "name": "value",
          "type": "uint256"
        }
      ],
      "name": "Approval",
      "type": "event"
    },
    {
      "anonymous": false,
      "inputs": [
        {
          "indexed": true,
          "internalType": "address",
          "name": "from",
          "type": "address"
        },
        {
          "indexed": true,
          "internalType": "address",
          "name": "to",
          "type": "address"
        },
        {
          "indexed": false,
          "internalType": "uint256",
          "name": "value",
          "type": "uint256"
        }
      ],
      "name": "Transfer",
      "type": "event"
    },
    {
      "anonymous": false,
      "inputs": [
        {
          "indexed": true,
          "internalType": "address",
          "name": "Receiver",
          "type": "address"
        },
        {
          "indexed": false,
          "internalType": "uint256",
          "name": "Amount",
          "type": "uint256"
        }
      ],
      "name": "toppedUp",
      "type": "event"
    },
    {
      "inputs": [
        {
          "internalType": "address",
          "name": "owner",
          "type": "address"
        },
        {
          "internalType": "address",
          "name": "spender",
          "type": "address"
        }
      ],
      "name": "allowance",
      "outputs": [
        {
          "internalType": "uint256",
          "name": "",
          "type": "uint256"
        }
      ],
      "stateMutability": "view",
      "type": "function"
    },
    {
      "inputs": [
        {
          "internalType": "address",
          "name": "spender",
          "type": "address"
        },
        {
          "internalType": "uint256",
          "name": "amount",
          "type": "uint256"
        }
      ],
      "name": "approve",
      "outputs": [
        {
          "internalType": "bool",
          "name": "",
          "type": "bool"
        }
      ],
      "stateMutability": "nonpayable",
      "type": "function"
    },
    {
      "inputs": [
        {
          "internalType": "address",
          "name": "account",
          "type": "address"
        }
      ],
      "name": "balanceOf",
      "outputs": [
        {
          "internalType": "uint256",
          "name": "",
          "type": "uint256"
        }
      ],
      "stateMutability": "view",
      "type": "function"
    },
    {
      "inputs": [],
      "name": "conversionRate",
      "outputs": [
        {
          "internalType": "uint256",
          "name": "",
          "type": "uint256"
        }
      ],
      "stateMutability": "view",
      "type": "function"
    },
    {
      "inputs": [],
      "name": "decimals",
      "outputs": [
        {
          "internalType": "uint8",
          "name": "",
          "type": "uint8"
        }
      ],
      "stateMutability": "view",
      "type": "function"
    },
    {
      "inputs": [
        {
          "internalType": "address",
          "name": "spender",
          "type": "address"
        },
        {
          "internalType": "uint256",
          "name": "subtractedValue",
          "type": "uint256"
        }
      ],
      "name": "decreaseAllowance",
      "outputs": [
        {
          "internalType": "bool",
          "name": "",
          "type": "bool"
        }
      ],
      "stateMutability": "nonpayable",
      "type": "function"
    },
    {
      "inputs": [
        {
          "internalType": "address",
          "name": "spender",
          "type": "address"
        },
        {
          "internalType": "uint256",
          "name": "addedValue",
          "type": "uint256"
        }
      ],
      "name": "increaseAllowance",
      "outputs": [
        {
          "internalType": "bool",
          "name": "",
          "type": "bool"
        }
      ],
      "stateMutability": "nonpayable",
      "type": "function"
    },
    {
      "inputs": [],
      "name": "name",
      "outputs": [
        {
          "internalType": "string",
          "name": "",
          "type": "string"
        }
      ],
      "stateMutability": "view",
      "type": "function"
    },
    {
      "inputs": [],
      "name": "symbol",
      "outputs": [
        {
          "internalType": "string",
          "name": "",
          "type": "string"
        }
      ],
      "stateMutability": "view",
      "type": "function"
    },
    {
      "inputs": [],
      "name": "totalSupply",
      "outputs": [
        {
          "internalType": "uint256",
          "name": "",
          "type": "uint256"
        }
      ],
      "stateMutability": "view",
      "type": "function"
    },
    {
      "inputs": [
        {
          "internalType": "address",
          "name": "recipient",
          "type": "address"
        },
        {
          "internalType": "uint256",
          "name": "amount",
          "type": "uint256"
        }
      ],
      "name": "transfer",
      "outputs": [
        {
          "internalType": "bool",
          "name": "",
          "type": "bool"
        }
      ],
      "stateMutability": "nonpayable",
      "type": "function"
    },
    {
      "inputs": [
        {
          "internalType": "address",
          "name": "sender",
          "type": "address"
        },
        {
          "internalType": "address",
          "name": "recipient",
          "type": "address"
        },
        {
          "internalType": "uint256",
          "name": "amount",
          "type": "uint256"
        }
      ],
      "name": "transferFrom",
      "outputs": [
        {
          "internalType": "bool",
          "name": "",
          "type": "bool"
        }
      ],
      "stateMutability": "nonpayable",
      "type": "function"
    },
    {
      "inputs": [],
      "name": "TopUP",
      "outputs": [],
      "stateMutability": "payable",
      "type": "function"
    }
  ],
  "bytecode": "0x60806040526105dc6005553480156200001757600080fd5b5060405162001dab38038062001dab83398181016040528101906200003d919062000340565b6040518060400160405280600a81526020017f53746f636b546f6b656e000000000000000000000000000000000000000000008152506040518060400160405280600381526020017f53545400000000000000000000000000000000000000000000000000000000008152508160039080519060200190620000c192919062000279565b508060049080519060200190620000da92919062000279565b505050620000ef3082620000f660201b60201c565b506200053d565b600073ffffffffffffffffffffffffffffffffffffffff168273ffffffffffffffffffffffffffffffffffffffff16141562000169576040517f08c379a00000000000000000000000000000000000000000000000000000000081526004016200016090620003aa565b60405180910390fd5b6200017d600083836200026f60201b60201c565b8060026000828254620001919190620003fa565b92505081905550806000808473ffffffffffffffffffffffffffffffffffffffff1673ffffffffffffffffffffffffffffffffffffffff1681526020019081526020016000206000828254620001e89190620003fa565b925050819055508173ffffffffffffffffffffffffffffffffffffffff16600073ffffffffffffffffffffffffffffffffffffffff167fddf252ad1be2c89b69c2b068fc378daa952ba7f163c4a11628f55a4df523b3ef836040516200024f9190620003cc565b60405180910390a36200026b600083836200027460201b60201c565b5050565b505050565b505050565b828054620002879062000461565b90600052602060002090601f016020900481019282620002ab5760008555620002f7565b82601f10620002c657805160ff1916838001178555620002f7565b82800160010185558215620002f7579182015b82811115620002f6578251825591602001919060010190620002d9565b5b5090506200030691906200030a565b5090565b5b80821115620003255760008160009055506001016200030b565b5090565b6000815190506200033a8162000523565b92915050565b600060208284031215620003595762000358620004f5565b5b6000620003698482850162000329565b91505092915050565b600062000381601f83620003e9565b91506200038e82620004fa565b602082019050919050565b620003a48162000457565b82525050565b60006020820190508181036000830152620003c58162000372565b9050919050565b6000602082019050620003e3600083018462000399565b92915050565b600082825260208201905092915050565b6000620004078262000457565b9150620004148362000457565b9250827fffffffffffffffffffffffffffffffffffffffffffffffffffffffffffffffff038211156200044c576200044b62000497565b5b828201905092915050565b6000819050919050565b600060028204905060018216806200047a57607f821691505b60208210811415620004915762000490620004c6565b5b50919050565b7f4e487b7100000000000000000000000000000000000000000000000000000000600052601160045260246000fd5b7f4e487b7100000000000000000000000000000000000000000000000000000000600052602260045260246000fd5b600080fd5b7f45524332303a206d696e7420746f20746865207a65726f206164647265737300600082015250565b6200052e8162000457565b81146200053a57600080fd5b50565b61185e806200054d6000396000f3fe6080604052600436106100c25760003560e01c8063395093511161007f57806395d89b411161005957806395d89b4114610271578063a457c2d71461029c578063a9059cbb146102d9578063dd62ed3e14610316576100c2565b806339509351146101cc57806370a08231146102095780637ffdf53e14610246576100c2565b806306fdde03146100c7578063095ea7b3146100f25780630c922ff51461012f57806318160ddd1461013957806323b872dd14610164578063313ce567146101a1575b600080fd5b3480156100d357600080fd5b506100dc610353565b6040516100e99190611187565b60405180910390f35b3480156100fe57600080fd5b5061011960048036038101906101149190610f34565b6103e5565b604051610126919061116c565b60405180910390f35b610137610403565b005b34801561014557600080fd5b5061014e6105b0565b60405161015b91906112c9565b60405180910390f35b34801561017057600080fd5b5061018b60048036038101906101869190610ee1565b6105ba565b604051610198919061116c565b60405180910390f35b3480156101ad57600080fd5b506101b66106b2565b6040516101c391906112e4565b60405180910390f35b3480156101d857600080fd5b506101f360048036038101906101ee9190610f34565b6106bb565b604051610200919061116c565b60405180910390f35b34801561021557600080fd5b50610230600480360381019061022b9190610e74565b610767565b60405161023d91906112c9565b60405180910390f35b34801561025257600080fd5b5061025b6107af565b60405161026891906112c9565b60405180910390f35b34801561027d57600080fd5b506102866107b5565b6040516102939190611187565b60405180910390f35b3480156102a857600080fd5b506102c360048036038101906102be9190610f34565b610847565b6040516102d0919061116c565b60405180910390f35b3480156102e557600080fd5b5061030060048036038101906102fb9190610f34565b610932565b60405161030d919061116c565b60405180910390f35b34801561032257600080fd5b5061033d60048036038101906103389190610ea1565b610950565b60405161034a91906112c9565b60405180910390f35b60606003805461036290611484565b80601f016020809104026020016040519081016040528092919081815260200182805461038e90611484565b80156103db5780601f106103b0576101008083540402835291602001916103db565b820191906000526020600020905b8154815290600101906020018083116103be57829003601f168201915b5050505050905090565b60006103f96103f26109d7565b84846109df565b6001905092915050565b60003490506000811161044b576040517f08c379a000000000000000000000000000000000000000000000000000000000815260040161044290611289565b60405180910390fd5b60003073ffffffffffffffffffffffffffffffffffffffff166370a08231306040518263ffffffff1660e01b81526004016104869190611151565b60206040518083038186803b15801561049e57600080fd5b505afa1580156104b2573d6000803e3d6000fd5b505050506040513d601f19601f820116820180604052508101906104d69190610f74565b90506000600554836104e891906113a2565b9050670de0b6b3a7640000826104fe91906113a2565b811061053f576040517f08c379a000000000000000000000000000000000000000000000000000000000815260040161053690611229565b60405180910390fd5b61055d3033670de0b6b3a7640000846105589190611371565b610baa565b3373ffffffffffffffffffffffffffffffffffffffff167f0f4b7103986fd267fecf2c0de625f46b30ec3fab29812fc5b24e3fbfce48daea846040516105a391906112c9565b60405180910390a2505050565b6000600254905090565b60006105c7848484610baa565b6000600160008673ffffffffffffffffffffffffffffffffffffffff1673ffffffffffffffffffffffffffffffffffffffff16815260200190815260200160002060006106126109d7565b73ffffffffffffffffffffffffffffffffffffffff1673ffffffffffffffffffffffffffffffffffffffff16815260200190815260200160002054905082811015610692576040517f08c379a000000000000000000000000000000000000000000000000000000000815260040161068990611209565b60405180910390fd5b6106a68561069e6109d7565b8584036109df565b60019150509392505050565b60006012905090565b600061075d6106c86109d7565b8484600160006106d66109d7565b73ffffffffffffffffffffffffffffffffffffffff1673ffffffffffffffffffffffffffffffffffffffff16815260200190815260200160002060008873ffffffffffffffffffffffffffffffffffffffff1673ffffffffffffffffffffffffffffffffffffffff16815260200190815260200160002054610758919061131b565b6109df565b6001905092915050565b60008060008373ffffffffffffffffffffffffffffffffffffffff1673ffffffffffffffffffffffffffffffffffffffff168152602001908152602001600020549050919050565b60055481565b6060600480546107c490611484565b80601f01602080910402602001604051908101604052809291908181526020018280546107f090611484565b801561083d5780601f106108125761010080835404028352916020019161083d565b820191906000526020600020905b81548152906001019060200180831161082057829003601f168201915b5050505050905090565b600080600160006108566109d7565b73ffffffffffffffffffffffffffffffffffffffff1673ffffffffffffffffffffffffffffffffffffffff16815260200190815260200160002060008573ffffffffffffffffffffffffffffffffffffffff1673ffffffffffffffffffffffffffffffffffffffff16815260200190815260200160002054905082811015610913576040517f08c379a000000000000000000000000000000000000000000000000000000000815260040161090a906112a9565b60405180910390fd5b61092761091e6109d7565b858584036109df565b600191505092915050565b600061094661093f6109d7565b8484610baa565b6001905092915050565b6000600160008473ffffffffffffffffffffffffffffffffffffffff1673ffffffffffffffffffffffffffffffffffffffff16815260200190815260200160002060008373ffffffffffffffffffffffffffffffffffffffff1673ffffffffffffffffffffffffffffffffffffffff16815260200190815260200160002054905092915050565b600033905090565b600073ffffffffffffffffffffffffffffffffffffffff168373ffffffffffffffffffffffffffffffffffffffff161415610a4f576040517f08c379a0000000000000000000000000000000000000000000000000000000008152600401610a4690611269565b60405180910390fd5b600073ffffffffffffffffffffffffffffffffffffffff168273ffffffffffffffffffffffffffffffffffffffff161415610abf576040517f08c379a0000000000000000000000000000000000000000000000000000000008152600401610ab6906111c9565b60405180910390fd5b80600160008573ffffffffffffffffffffffffffffffffffffffff1673ffffffffffffffffffffffffffffffffffffffff16815260200190815260200160002060008473ffffffffffffffffffffffffffffffffffffffff1673ffffffffffffffffffffffffffffffffffffffff168152602001908152602001600020819055508173ffffffffffffffffffffffffffffffffffffffff168373ffffffffffffffffffffffffffffffffffffffff167f8c5be1e5ebec7d5bd14f71427d1e84f3dd0314c0f7b2291e5b200ac8c7c3b92583604051610b9d91906112c9565b60405180910390a3505050565b600073ffffffffffffffffffffffffffffffffffffffff168373ffffffffffffffffffffffffffffffffffffffff161415610c1a576040517f08c379a0000000000000000000000000000000000000000000000000000000008152600401610c1190611249565b60405180910390fd5b600073ffffffffffffffffffffffffffffffffffffffff168273ffffffffffffffffffffffffffffffffffffffff161415610c8a576040517f08c379a0000000000000000000000000000000000000000000000000000000008152600401610c81906111a9565b60405180910390fd5b610c95838383610e2b565b60008060008573ffffffffffffffffffffffffffffffffffffffff1673ffffffffffffffffffffffffffffffffffffffff16815260200190815260200160002054905081811015610d1b576040517f08c379a0000000000000000000000000000000000000000000000000000000008152600401610d12906111e9565b60405180910390fd5b8181036000808673ffffffffffffffffffffffffffffffffffffffff1673ffffffffffffffffffffffffffffffffffffffff16815260200190815260200160002081905550816000808573ffffffffffffffffffffffffffffffffffffffff1673ffffffffffffffffffffffffffffffffffffffff1681526020019081526020016000206000828254610dae919061131b565b925050819055508273ffffffffffffffffffffffffffffffffffffffff168473ffffffffffffffffffffffffffffffffffffffff167fddf252ad1be2c89b69c2b068fc378daa952ba7f163c4a11628f55a4df523b3ef84604051610e1291906112c9565b60405180910390a3610e25848484610e30565b50505050565b505050565b505050565b600081359050610e44816117fa565b92915050565b600081359050610e5981611811565b92915050565b600081519050610e6e81611811565b92915050565b600060208284031215610e8a57610e89611543565b5b6000610e9884828501610e35565b91505092915050565b60008060408385031215610eb857610eb7611543565b5b6000610ec685828601610e35565b9250506020610ed785828601610e35565b9150509250929050565b600080600060608486031215610efa57610ef9611543565b5b6000610f0886828701610e35565b9350506020610f1986828701610e35565b9250506040610f2a86828701610e4a565b9150509250925092565b60008060408385031215610f4b57610f4a611543565b5b6000610f5985828601610e35565b9250506020610f6a85828601610e4a565b9150509250929050565b600060208284031215610f8a57610f89611543565b5b6000610f9884828501610e5f565b91505092915050565b610faa816113fc565b82525050565b610fb98161140e565b82525050565b6000610fca826112ff565b610fd4818561130a565b9350610fe4818560208601611451565b610fed81611548565b840191505092915050565b600061100560238361130a565b915061101082611559565b604082019050919050565b600061102860228361130a565b9150611033826115a8565b604082019050919050565b600061104b60268361130a565b9150611056826115f7565b604082019050919050565b600061106e60288361130a565b915061107982611646565b604082019050919050565b600061109160368361130a565b915061109c82611695565b604082019050919050565b60006110b460258361130a565b91506110bf826116e4565b604082019050919050565b60006110d760248361130a565b91506110e282611733565b604082019050919050565b60006110fa601b8361130a565b915061110582611782565b602082019050919050565b600061111d60258361130a565b9150611128826117ab565b604082019050919050565b61113c8161143a565b82525050565b61114b81611444565b82525050565b60006020820190506111666000830184610fa1565b92915050565b60006020820190506111816000830184610fb0565b92915050565b600060208201905081810360008301526111a18184610fbf565b905092915050565b600060208201905081810360008301526111c281610ff8565b9050919050565b600060208201905081810360008301526111e28161101b565b9050919050565b600060208201905081810360008301526112028161103e565b9050919050565b6000602082019050818103600083015261122281611061565b9050919050565b6000602082019050818103600083015261124281611084565b9050919050565b60006020820190508181036000830152611262816110a7565b9050919050565b60006020820190508181036000830152611282816110ca565b9050919050565b600060208201905081810360008301526112a2816110ed565b9050919050565b600060208201905081810360008301526112c281611110565b9050919050565b60006020820190506112de6000830184611133565b92915050565b60006020820190506112f96000830184611142565b92915050565b600081519050919050565b600082825260208201905092915050565b60006113268261143a565b91506113318361143a565b9250827fffffffffffffffffffffffffffffffffffffffffffffffffffffffffffffffff03821115611366576113656114b6565b5b828201905092915050565b600061137c8261143a565b91506113878361143a565b925082611397576113966114e5565b5b828204905092915050565b60006113ad8261143a565b91506113b88361143a565b9250817fffffffffffffffffffffffffffffffffffffffffffffffffffffffffffffffff04831182151516156113f1576113f06114b6565b5b828202905092915050565b60006114078261141a565b9050919050565b60008115159050919050565b600073ffffffffffffffffffffffffffffffffffffffff82169050919050565b6000819050919050565b600060ff82169050919050565b60005b8381101561146f578082015181840152602081019050611454565b8381111561147e576000848401525b50505050565b6000600282049050600182168061149c57607f821691505b602082108114156114b0576114af611514565b5b50919050565b7f4e487b7100000000000000000000000000000000000000000000000000000000600052601160045260246000fd5b7f4e487b7100000000000000000000000000000000000000000000000000000000600052601260045260246000fd5b7f4e487b7100000000000000000000000000000000000000000000000000000000600052602260045260246000fd5b600080fd5b6000601f19601f8301169050919050565b7f45524332303a207472616e7366657220746f20746865207a65726f206164647260008201527f6573730000000000000000000000000000000000000000000000000000000000602082015250565b7f45524332303a20617070726f766520746f20746865207a65726f20616464726560008201527f7373000000000000000000000000000000000000000000000000000000000000602082015250565b7f45524332303a207472616e7366657220616d6f756e742065786365656473206260008201527f616c616e63650000000000000000000000000000000000000000000000000000602082015250565b7f45524332303a207472616e7366657220616d6f756e742065786365656473206160008201527f6c6c6f77616e6365000000000000000000000000000000000000000000000000602082015250565b7f4e6f7420656e6f75676820746f6b656e7320617661696c61626c6520666f722060008201527f7472616e7366657220617420746865206d6f6d656e7400000000000000000000602082015250565b7f45524332303a207472616e736665722066726f6d20746865207a65726f20616460008201527f6472657373000000000000000000000000000000000000000000000000000000602082015250565b7f45524332303a20617070726f76652066726f6d20746865207a65726f2061646460008201527f7265737300000000000000000000000000000000000000000000000000000000602082015250565b7f596f75206e65656420746f2073656e6420736f6d652065746865720000000000600082015250565b7f45524332303a2064656372656173656420616c6c6f77616e63652062656c6f7760008201527f207a65726f000000000000000000000000000000000000000000000000000000602082015250565b611803816113fc565b811461180e57600080fd5b50565b61181a8161143a565b811461182557600080fd5b5056fea2646970667358221220bdb5880094c371ae44c9ddad1c8107e404dfe1bbb7e56b11c0d8a48259e86ea464736f6c63430008070033",
  "immutableReferences": {},
  "source": "pragma solidity 0.8.7;\n\nimport \"@openzeppelin/contracts/token/ERC20/ERC20.sol\";\n\ncontract StockToken is ERC20 {\n    constructor(uint256 _initialsupply) ERC20(\"StockToken\", \"STT\") {\n        _mint(address(this), _initialsupply);\n    }\n\n    uint256 public conversionRate = 1500;\n\n    event toppedUp(address indexed Receiver, uint256 Amount);\n\n    function TopUP() public payable {\n        uint256 payment = msg.value;\n        require(payment > 0, \"You need to send some ether\");\n        uint256 available = this.balanceOf(address(this));\n        uint256 needed = payment * conversionRate;\n\n        require(\n            needed < (available * 10**18),\n            \"Not enough tokens available for transfer at the moment\"\n        );\n        _transfer(address(this), msg.sender, needed / (10**18));\n        emit toppedUp(msg.sender, payment);\n    }\n}\n",
  "sourcePath": "/home/alii/Documents/Share-Market-Place/Logic/contracts/StockToken.sol",
  "compiler": {
    "name": "solc",
    "version": "0.8.7+commit.e28d00a7.Emscripten.clang"
  },
  "schemaVersion": "3.4.2",
  "updatedAt": "2021-08-23T12:07:16.419Z",
  "devdoc": {
    "kind": "dev",
    "methods": {
      "allowance(address,address)": {
        "details": "See {IERC20-allowance}."
      },
      "approve(address,uint256)": {
        "details": "See {IERC20-approve}. Requirements: - `spender` cannot be the zero address."
      },
      "balanceOf(address)": {
        "details": "See {IERC20-balanceOf}."
      },
      "decimals()": {
        "details": "Returns the number of decimals used to get its user representation. For example, if `decimals` equals `2`, a balance of `505` tokens should be displayed to a user as `5,05` (`505 / 10 ** 2`). Tokens usually opt for a value of 18, imitating the relationship between Ether and Wei. This is the value {ERC20} uses, unless this function is overridden; NOTE: This information is only used for _display_ purposes: it in no way affects any of the arithmetic of the contract, including {IERC20-balanceOf} and {IERC20-transfer}."
      },
      "decreaseAllowance(address,uint256)": {
        "details": "Atomically decreases the allowance granted to `spender` by the caller. This is an alternative to {approve} that can be used as a mitigation for problems described in {IERC20-approve}. Emits an {Approval} event indicating the updated allowance. Requirements: - `spender` cannot be the zero address. - `spender` must have allowance for the caller of at least `subtractedValue`."
      },
      "increaseAllowance(address,uint256)": {
        "details": "Atomically increases the allowance granted to `spender` by the caller. This is an alternative to {approve} that can be used as a mitigation for problems described in {IERC20-approve}. Emits an {Approval} event indicating the updated allowance. Requirements: - `spender` cannot be the zero address."
      },
      "name()": {
        "details": "Returns the name of the token."
      },
      "symbol()": {
        "details": "Returns the symbol of the token, usually a shorter version of the name."
      },
      "totalSupply()": {
        "details": "See {IERC20-totalSupply}."
      },
      "transfer(address,uint256)": {
        "details": "See {IERC20-transfer}. Requirements: - `recipient` cannot be the zero address. - the caller must have a balance of at least `amount`."
      },
      "transferFrom(address,address,uint256)": {
        "details": "See {IERC20-transferFrom}. Emits an {Approval} event indicating the updated allowance. This is not required by the EIP. See the note at the beginning of {ERC20}. Requirements: - `sender` and `recipient` cannot be the zero address. - `sender` must have a balance of at least `amount`. - the caller must have allowance for ``sender``'s tokens of at least `amount`."
      }
    },
    "version": 1
  },
  "userdoc": {
    "kind": "user",
    "methods": {},
    "version": 1
  }
}